{"abi":[{"type":"receive","stateMutability":"payable"},{"type":"function","name":"algebraSwapCallback","inputs":[{"name":"amount0Delta","type":"int256","internalType":"int256"},{"name":"amount1Delta","type":"int256","internalType":"int256"},{"name":"","type":"bytes","internalType":"bytes"}],"outputs":[],"stateMutability":"nonpayable"},{"type":"function","name":"lockAcquired","inputs":[{"name":"data","type":"bytes","internalType":"bytes"}],"outputs":[{"name":"","type":"bytes","internalType":"bytes"}],"stateMutability":"nonpayable"},{"type":"function","name":"maverickV2SwapCallback","inputs":[{"name":"","type":"address","internalType":"contract IERC20"},{"name":"amountIn","type":"uint256","internalType":"uint256"},{"name":"","type":"uint256","internalType":"uint256"},{"name":"","type":"bytes","internalType":"bytes"}],"outputs":[],"stateMutability":"nonpayable"},{"type":"function","name":"pancakeV3SwapCallback","inputs":[{"name":"amount0Delta","type":"int256","internalType":"int256"},{"name":"amount1Delta","type":"int256","internalType":"int256"},{"name":"","type":"bytes","internalType":"bytes"}],"outputs":[],"stateMutability":"nonpayable"},{"type":"function","name":"quote","inputs":[{"name":"params","type":"tuple","internalType":"struct QuoteParams","components":[{"name":"poolType","type":"uint8","internalType":"enum SwapPoolType"},{"name":"pool","type":"address","internalType":"address"},{"name":"poolKey","type":"tuple","internalType":"struct PoolKey","components":[{"name":"currency0","type":"address","internalType":"Currency"},{"name":"currency1","type":"address","internalType":"Currency"},{"name":"fee","type":"uint24","internalType":"uint24"},{"name":"tickSpacing","type":"int24","internalType":"int24"},{"name":"hooks","type":"address","internalType":"address"}]},{"name":"stateView","type":"address","internalType":"address"},{"name":"tokenIn","type":"address","internalType":"address"},{"name":"tokenOut","type":"address","internalType":"address"},{"name":"amountSpecified","type":"int256","internalType":"int256"},{"name":"sqrtPriceLimitX96","type":"uint160","internalType":"uint160"}]}],"outputs":[{"name":"result","type":"tuple","internalType":"struct SwapQuoteResult","components":[{"name":"amountIn","type":"uint256","internalType":"uint256"},{"name":"amountOut","type":"uint256","internalType":"uint256"},{"name":"sqrtPriceAfter","type":"uint160","internalType":"uint160"},{"name":"gasEstimate","type":"uint256","internalType":"uint256"}]}],"stateMutability":"nonpayable"},{"type":"function","name":"quoteInfinityBin","inputs":[{"name":"vault","type":"address","internalType":"address"},{"name":"key","type":"tuple","internalType":"struct InfinityPoolKey","components":[{"name":"currency0","type":"address","internalType":"Currency"},{"name":"currency1","type":"address","internalType":"Currency"},{"name":"hooks","type":"address","internalType":"address"},{"name":"poolManager","type":"address","internalType":"address"},{"name":"fee","type":"uint24","internalType":"uint24"},{"name":"parameters","type":"bytes32","internalType":"bytes32"}]},{"name":"swapForY","type":"bool","internalType":"bool"},{"name":"amountSpecified","type":"int128","internalType":"int128"}],"outputs":[{"name":"result","type":"tuple","internalType":"struct SwapQuoteResult","components":[{"name":"amountIn","type":"uint256","internalType":"uint256"},{"name":"amountOut","type":"uint256","internalType":"uint256"},{"name":"sqrtPriceAfter","type":"uint160","internalType":"uint160"},{"name":"gasEstimate","type":"uint256","internalType":"uint256"}]}],"stateMutability":"nonpayable"},{"type":"function","name":"quoteInfinityCL","inputs":[{"name":"vault","type":"address","internalType":"address"},{"name":"key","type":"tuple","internalType":"struct InfinityPoolKey","components":[{"name":"currency0","type":"address","internalType":"Currency"},{"name":"currency1","type":"address","internalType":"Currency"},{"name":"hooks","type":"address","internalType":"address"},{"name":"poolManager","type":"address","internalType":"address"},{"name":"fee","type":"uint24","internalType":"uint24"},{"name":"parameters","type":"bytes32","internalType":"bytes32"}]},{"name":"zeroForOne","type":"bool","internalType":"bool"},{"name":"amountSpecified","type":"int256","internalType":"int256"},{"name":"sqrtPriceLimitX96","type":"uint160","internalType":"uint160"}],"outputs":[{"name":"result","type":"tuple","internalType":"struct SwapQuoteResult","components":[{"name":"amountIn","type":"uint256","internalType":"uint256"},{"name":"amountOut","type":"uint256","internalType":"uint256"},{"name":"sqrtPriceAfter","type":"uint160","internalType":"uint160"},{"name":"gasEstimate","type":"uint256","internalType":"uint256"}]}],"stateMutability":"nonpayable"},{"type":"function","name":"simulateSwap","inputs":[{"name":"params","type":"tuple","internalType":"struct QuoteParams","components":[{"name":"poolType","type":"uint8","internalType":"enum SwapPoolType"},{"name":"pool","type":"address","internalType":"address"},{"name":"poolKey","type":"tuple","internalType":"struct PoolKey","components":[{"name":"currency0","type":"address","internalType":"Currency"},{"name":"currency1","type":"address","internalType":"Currency"},{"name":"fee","type":"uint24","internalType":"uint24"},{"name":"tickSpacing","type":"int24","internalType":"int24"},{"name":"hooks","type":"address","internalType":"address"}]},{"name":"stateView","type":"address","internalType":"address"},{"name":"tokenIn","type":"address","internalType":"address"},{"name":"tokenOut","type":"address","internalType":"address"},{"name":"amountSpecified","type":"int256","internalType":"int256"},{"name":"sqrtPriceLimitX96","type":"uint160","internalType":"uint160"}]}],"outputs":[],"stateMutability":"nonpayable"},{"type":"function","name":"swap","inputs":[{"name":"params","type":"tuple","internalType":"struct SwapParams","components":[{"name":"poolType","type":"uint8","internalType":"enum SwapPoolType"},{"name":"pool","type":"address","internalType":"address"},{"name":"poolKey","type":"tuple","internalType":"struct PoolKey","components":[{"name":"currency0","type":"address","internalType":"Currency"},{"name":"currency1","type":"address","internalType":"Currency"},{"name":"fee","type":"uint24","internalType":"uint24"},{"name":"tickSpacing","type":"int24","internalType":"int24"},{"name":"hooks","type":"address","internalType":"address"}]},{"name":"tokenIn","type":"address","internalType":"address"},{"name":"tokenOut","type":"address","internalType":"address"},{"name":"amountSpecified","type":"int256","internalType":"int256"},{"name":"sqrtPriceLimitX96","type":"uint160","internalType":"uint160"},{"name":"payer","type":"address","internalType":"address"},{"name":"recipient","type":"address","internalType":"address"},{"name":"callback","type":"bytes","internalType":"bytes"}]}],"outputs":[{"name":"amount0","type":"int256","internalType":"int256"},{"name":"amount1","type":"int256","internalType":"int256"}],"stateMutability":"nonpayable"},{"type":"function","name":"swapInfinityBin","inputs":[{"name":"vault","type":"address","internalType":"address"},{"name":"key","type":"tuple","internalType":"struct InfinityPoolKey","components":[{"name":"currency0","type":"address","internalType":"Currency"},{"name":"currency1","type":"address","internalType":"Currency"},{"name":"hooks","type":"address","internalType":"address"},{"name":"poolManager","type":"address","internalType":"address"},{"name":"fee","type":"uint24","internalType":"uint24"},{"name":"parameters","type":"bytes32","internalType":"bytes32"}]},{"name":"swapForY","type":"bool","internalType":"bool"},{"name":"amountSpecified","type":"int128","internalType":"int128"},{"name":"payer","type":"address","internalType":"address"},{"name":"recipient","type":"address","internalType":"address"},{"name":"callback","type":"bytes","internalType":"bytes"}],"outputs":[{"name":"amount0","type":"int256","internalType":"int256"},{"name":"amount1","type":"int256","internalType":"int256"}],"stateMutability":"nonpayable"},{"type":"function","name":"swapInfinityCL","inputs":[{"name":"vault","type":"address","internalType":"address"},{"name":"key","type":"tuple","internalType":"struct InfinityPoolKey","components":[{"name":"currency0","type":"address","internalType":"Currency"},{"name":"currency1","type":"address","internalType":"Currency"},{"name":"hooks","type":"address","internalType":"address"},{"name":"poolManager","type":"address","internalType":"address"},{"name":"fee","type":"uint24","internalType":"uint24"},{"name":"parameters","type":"bytes32","internalType":"bytes32"}]},{"name":"zeroForOne","type":"bool","internalType":"bool"},{"name":"amountSpecified","type":"int256","internalType":"int256"},{"name":"sqrtPriceLimitX96","type":"uint160","internalType":"uint160"},{"name":"payer","type":"address","internalType":"address"},{"name":"recipient","type":"address","internalType":"address"},{"name":"callback","type":"bytes","internalType":"bytes"}],"outputs":[{"name":"amount0","type":"int256","internalType":"int256"},{"name":"amount1","type":"int256","internalType":"int256"}],"stateMutability":"nonpayable"},{"type":"function","name":"swapV3","inputs":[{"name":"pool","type":"address","internalType":"address"},{"name":"tokenIn","type":"address","internalType":"address"},{"name":"tokenOut","type":"address","internalType":"address"},{"name":"amountSpecified","type":"int256","internalType":"int256"},{"name":"sqrtPriceLimitX96","type":"uint160","internalType":"uint160"},{"name":"payer","type":"address","internalType":"address"},{"name":"recipient","type":"address","internalType":"address"}],"outputs":[{"name":"amount0","type":"int256","internalType":"int256"},{"name":"amount1","type":"int256","internalType":"int256"}],"stateMutability":"nonpayable"},{"type":"function","name":"swapV4","inputs":[{"name":"poolManager","type":"address","internalType":"address"},{"name":"key","type":"tuple","internalType":"struct PoolKey","components":[{"name":"currency0","type":"address","internalType":"Currency"},{"name":"currency1","type":"address","internalType":"Currency"},{"name":"fee","type":"uint24","internalType":"uint24"},{"name":"tickSpacing","type":"int24","internalType":"int24"},{"name":"hooks","type":"address","internalType":"address"}]},{"name":"zeroForOne","type":"bool","internalType":"bool"},{"name":"amountSpecified","type":"int256","internalType":"int256"},{"name":"sqrtPriceLimitX96","type":"uint160","internalType":"uint160"},{"name":"payer","type":"address","internalType":"address"},{"name":"recipient","type":"address","internalType":"address"}],"outputs":[{"name":"amount0","type":"int256","internalType":"int256"},{"name":"amount1","type":"int256","internalType":"int256"}],"stateMutability":"nonpayable"},{"type":"function","name":"uniswapV3SwapCallback","inputs":[{"name":"amount0Delta","type":"int256","internalType":"int256"},{"name":"amount1Delta","type":"int256","internalType":"int256"},{"name":"","type":"bytes","internalType":"bytes"}],"outputs":[],"stateMutability":"nonpayable"},{"type":"function","name":"unlockCallback","inputs":[{"name":"data","type":"bytes","internalType":"bytes"}],"outputs":[{"name":"","type":"bytes","internalType":"bytes"}],"stateMutability":"nonpayable"},{"type":"error","name":"InsufficientOutput","inputs":[]},{"type":"error","name":"InvalidPool","inputs":[]},{"type":"error","name":"QuoteRevert","inputs":[{"name":"amountIn","type":"uint256","internalType":"uint256"},{"name":"amountOut","type":"uint256","internalType":"uint256"},{"name":"sqrtPriceAfter","type":"uint160","internalType":"uint160"},{"name":"gasEstimate","type":"uint256","internalType":"uint256"}]},{"type":"error","name":"SafeERC20FailedOperation","inputs":[{"name":"token","type":"address","internalType":"address"}]},{"type":"error","name":"SwapFailed","inputs":[]},{"type":"error","name":"UnauthorizedCallback","inputs":[]},{"type":"error","name":"UnauthorizedCaller","inputs":[]}],"bytecode":{"object":"0x60808060405234601557615685908161001a8239f35b5f80fdfe6080604052600436101561001a575b3615610018575f80fd5b005b5f3560e01c80630249b0f61461010057806323a69e75146100c45780632c8958f6146100c4578063400f5106146100fb57806367a6265e146100f657806367ca7c91146100f1578063719b4468146100ec5780637c9e9da3146100e757806391dd7346146100e257806392b16866146100dd578063a5e2989d146100d8578063ab6291fe146100d3578063c3b093a8146100ce578063eb55e6f1146100c95763fa461e330361000e575b610258565b61158c565b611407565b610f2b565b610e5e565b610de5565b61090c565b61072e565b6106c1565b610602565b6105af565b6104a1565b61017b565b6001600160a01b0381160361011657565b5f80fd5b359061012582610105565b565b60c090602319011261011657602490565b8015150361011657565b359061012582610138565b9181601f840112156101165782359167ffffffffffffffff8311610116576020838186019501011161011657565b34610116576101a03660031901126101165760043561019981610105565b6101a236610127565b60e435916101af83610138565b61010435610124356101c081610105565b61014435906101ce82610105565b61016435926101dc84610105565b610184359667ffffffffffffffff88116101165761020161020998369060040161014d565b9790966117eb565b604080519283526020830191909152819081015b0390f35b60606003198201126101165760043591602435916044359067ffffffffffffffff8211610116576102549160040161014d565b9091565b346101165761026636610221565b50507f8262aa0aaf259c3b6dbf5360db70d05feb8ca82e122fcaf57c4a3f4362a7f6005c917f8262aa0aaf259c3b6dbf5360db70d05feb8ca82e122fcaf57c4a3f4362a7f6015c907f8262aa0aaf259c3b6dbf5360db70d05feb8ca82e122fcaf57c4a3f4362a7f6025c7f8262aa0aaf259c3b6dbf5360db70d05feb8ca82e122fcaf57c4a3f4362a7f5ff5c6001600160a01b031633036104795761039c5761030d613027565b5f8113610358575b505f821361031f57005b6001600160a01b03831630036103445761001892506001600160a01b033391166131a2565b610018926001600160a01b033392166130ff565b6001600160a01b03841630036103825761037c90336001600160a01b0384166131a2565b5f610315565b6103979033856001600160a01b0385166130ff565b61037c565b8260405191633850c7bd60e01b835260e083600481335afa928315610474575f93610439575b5061041f905f8113156104335780925b5f82121561042357506103e490612881565b925b604051938493636255171f60e01b8552600485016001600160a01b0360609295945f946080840197845260208401521660408201520152565b0390fd5b61042d9150612881565b926103e6565b826103d2565b61041f9193506104609060e03d60e01161046d575b6104588183611adf565b810190612ab3565b50505050505092906103c2565b503d61044e565b611e7f565b7ff5c6c81a000000000000000000000000000000000000000000000000000000005f5260045ffd5b3461011657610140366003190112610116576004356104bf81610105565b6104c836610127565b9060e435916104d683610138565b6101043590610124356104e881610105565b6104f0611b5d565b935a955f85121561058e576001600160a01b0394610522610530926105359660405196879430933093602088016118e3565b03601f198101845283611adf565b612b1a565b92909192166040840152602083015281525a8203918211610589576060818101928352604080518351815260208085015190820152928101516001600160a01b031690830152915191810191909152608090f35b611b92565b63081ceff360e41b5f5260045ffd5b61018090600319011261011657600490565b346101165761021d6105c86105c33661059d565b611ee9565b60405191829182919091606080608083019480518452602081015160208501526001600160a01b0360408201511660408501520151910152565b346101165760803660031901126101165761061e600435610105565b60243560643567ffffffffffffffff81116101165761064190369060040161014d565b50507fd86eb83254f68c5dfc4e225ac5a8c924b574715967dc213ac588c21d7c8833dc5c907fd86eb83254f68c5dfc4e225ac5a8c924b574715967dc213ac588c21d7c8833dd5c6001600160a01b037fd86eb83254f68c5dfc4e225ac5a8c924b574715967dc213ac588c21d7c8833db5c1633036104795761031f613027565b346101165760203660031901126101165760043567ffffffffffffffff8111610116576101c06003198236030112610116573033036107065761020990600401612183565b7f5c427cd9000000000000000000000000000000000000000000000000000000005f5260045ffd5b34610116576101603660031901126101165760043561074c81610105565b60a03660231901126101165760c43561076481610138565b60e435610104359161077583610105565b610124359061078382610105565b610144359161079183610105565b3033036107065761084c60209561086d956108376102099961082761085c97805f14610896576107d06107c46024612352565b6001600160a01b031690565b905b15610880576108076107e76107c46044612352565b935b6107f1611b1f565b600281529d8e5b01906001600160a01b03169052565b610812366024611c00565b60408d01526001600160a01b031660608c0152565b6001600160a01b031660808a0152565b60a08801526001600160a01b031660c0870152565b6001600160a01b031660e0850152565b6001600160a01b0316610100830152565b610875611ea6565b6101208201526139ea565b6108076108906107c46024612352565b936107e9565b6108a36107c46044612352565b906107d2565b6020600319820112610116576004359067ffffffffffffffff8211610116576102549160040161014d565b805180835260209291819084018484015e5f828201840152601f01601f1916010190565b9060206109099281815201906108d4565b90565b346101165761091a366108a9565b6001600160a01b037f90e3c11b9f78c2665fff76a0877f21f24da1c72476ad322cf0a9a0540c01f5575c163303610479576001600160a01b038080610967856020956109e3970190612368565b969a9498929399919597909a1696169416926001600160a01b03811615610d9f575b6109af90610995611b01565b891515815292838501526001600160a01b03166040830152565b604051809981927ff3cd914c00000000000000000000000000000000000000000000000000000000835288600484016123ee565b03815f335af1968715610474575f97610d6e575b508660801d9487600f0b96610bec57505083600f0b955f8713610b78575b5f8613610ae2575b505090610a6c92915f61021d96610a32613027565b12610ab9575b5f8512610a78575b505060408051600f92830b60208201529390910b9083015281606081015b03601f198101835282611adf565b604051918291826108f8565b610a8f6020610ab29301516001600160a01b031690565b90610aab610a9f610a9f88612478565b6001600160801b031690565b9133614a2b565b5f80610a40565b610add610acd83516001600160a01b031690565b82610aab610a9f610a9f88612478565b610a38565b610afa6020859493969501516001600160a01b031690565b333b1561011657604051630b0d9c0960e01b81526001600160a01b039182166004820152951660248601526001600160801b031660448501525f8460648183335af180156104745761021d96610a6c955f92610b5e575b5096508192939450610a1d565b80610b6c84610b7293611adf565b80611d1c565b5f610b51565b83516001600160a01b0316333b1561011657604051630b0d9c0960e01b81526001600160a01b03918216600482015290831660248201526001600160801b03861660448201525f8160648183335af1801561047457610bd8575b50610a15565b80610b6c5f610be693611adf565b5f610bd2565b8486899289815f14610d5957610c07610a9f610a9f85612478565b945b8215610d49576001600160801b03165b915f84600f0b1280610d41575b15610d0557505050610a9f610a9f610c3d92612478565b925b5f9080610c86575b5061041f9150604051938493636255171f60e01b8552600485016001600160a01b0360609295945f946080840197845260208401521660408201520152565b60809150610c96610cb7936149c8565b906040518080958194633205590760e21b8352600483019190602083019252565b03915afa80156104745761041f915f91610cd3575b5084610c47565b610cf5915060803d608011610cfe575b610ced8183611adf565b8101906124a7565b50505084610ccc565b503d610ce3565b90919592505f82129081610d39575b50610d20575b50610c3f565b610d32919450610a9f610a9f91612478565b9284610d1a565b905086610d14565b508015610c26565b506001600160801b038316610c19565b610d68610a9f610a9f83612478565b94610c09565b610d9191975060203d602011610d98575b610d898183611adf565b8101906123df565b955f6109f7565b503d610d7f565b508615610db7576109af6401000276a45b9050610989565b6109af73fffd8963efd1fc6a506488495d951d5263988d25610db0565b610104359081600f0b820361011657565b346101165761012036600319011261011657600435610e0381610105565b610e0c36610127565b60e435610e1881610138565b610e20610dd4565b92610e29611b5d565b925a94600f0b915f83121561058e57610530610535936105226001600160a01b039660405195869330923092602087016119db565b346101165760e036600319011261011657600435610e7b81610105565b60243590610e8882610105565b60443591610e9583610105565b6064359160843593610ea685610105565b60a435610eb281610105565b60c43592610ebf84610105565b303303610706576102099660209661083761085c95610827610f189961084c96610812610eea611b10565b915f83525f8f8401525f60408401525f60608401525f6080840152610f0d611b1f565b600181529e8f6107f8565b610f20611ea6565b6101208201526135de565b3461011657610f39366108a9565b906001600160a01b037f877b2b8439a2f09fcf270e240004e4f37f2fd6852f7b25487843cdc62828247b5c1633036104795760206001600160a01b03610f848382955f9501906124ea565b99949893929597919a90969a1695169389841461137557611025916001600160a01b03821615611345575b610fef610fcc6107c46107c460608c01516001600160a01b031690565b92610fd5611b01565b8b1515815292838701526001600160a01b03166040830152565b6040519485809481937fcd0cc1ce0000000000000000000000000000000000000000000000000000000083528b60048401612659565b03925af1908115610474575f91611326575b50955b8660801d9487600f0b966111fe57505083600f0b955f871361118a575b5f86136110fa575b505090610a6c92915f61021d96611074613027565b126110d1575b5f85126110a357505060408051600f92830b60208201529390910b908301528160608101610a5e565b6110ba6020610ab29301516001600160a01b031690565b906110ca610a9f610a9f88612478565b9133614b0a565b6110f56110e583516001600160a01b031690565b826110ca610a9f610a9f88612478565b61107a565b6111126020859493969501516001600160a01b031690565b333b1561011657604051630b0d9c0960e01b81526001600160a01b039182166004820152951660248601526001600160801b031660448501525f8460648183335af180156104745761021d96610a6c955f92611176575b509650819293945061105f565b80610b6c8461118493611adf565b5f611169565b83516001600160a01b0316333b1561011657604051630b0d9c0960e01b81526001600160a01b03918216600482015290831660248201526001600160801b03861660448201525f8160648183335af18015610474576111ea575b50611057565b80610b6c5f6111f893611adf565b5f6111e4565b846001600160801b0389888a85156113115750611220610a9f610a9f83612478565b945b15611308575016925b5f90611270575b61041f9150604051938493636255171f60e01b8552600485016001600160a01b0360609295945f946080840197845260208401521660408201520152565b506080816112916107c46107c460606112cb9601516001600160a01b031690565b906040516112a781610a5e602082019485612702565b519020906040518080958194633205590760e21b8352600483019190602083019252565b03915afa80156104745761041f915f916112e6575b50611232565b6112ff915060803d608011610cfe57610ced8183611adf565b505050846112e0565b9050169261122b565b610a9f610a9f61132092612478565b94611222565b61133f915060203d602011610d9857610d898183611adf565b5f611037565b905087841461135b576401000276a45b90610faf565b73fffd8963efd1fc6a506488495d951d5263988d25611355565b506113cf906113946107c46107c460608a01516001600160a01b031690565b906040519485809481937f911a63b7000000000000000000000000000000000000000000000000000000008352600f0b8c8c600485016125cc565b03925af1908115610474575f916113e8575b509561103a565b611401915060203d602011610d9857610d898183611adf565b5f6113e1565b34610116576101803660031901126101165760043561142581610105565b61142e36610127565b60e43561143a81610138565b611442610dd4565b906101243561145081610105565b610144359161145e83610105565b6101643567ffffffffffffffff81116101165761147f90369060040161014d565b95909430330361070657600f0b965f88121561058e576102099760a0604051935f60208601526001600160a01b0381356114b881610105565b1660408601526001600160a01b0360208201356114d481610105565b1660608601526001600160a01b0360408201356114f081610105565b166080860152611516606082013561150781610105565b6001600160a01b031686840152565b611531611525608083016118d8565b62ffffff1660c0870152565b013560e08401528315156101008401526101208301525f6101408301525b6001600160a01b0384166101608301526001600160a01b0385166101808301525f6101a08301526101a082526115876101c083611adf565b612925565b346101165761159a3661059d565b6116a55a60406115a984611be0565b6116586115b860208701612352565b866116436115c96101008301612352565b6116336115d96101208501612352565b916116136115f06101606101408801359701612352565b966116036115fc611b1f565b9a8b61235c565b6001600160a01b031660208a0152565b61161f368a8e01611c00565b888a01526001600160a01b03166060880152565b6001600160a01b03166080860152565b60a08401526001600160a01b031660c0830152565b3060e08201523061010082015261166d611ea6565b6101208201528151809481927f719b446800000000000000000000000000000000000000000000000000000000835260048301612784565b03815f305af1918215610474575f905f936117b7575b506116c584614b9c565b80156117a8576116d482612881565b935b81156117a257805b915f84128061179a575b1561174c575050509061171161170961170361041f94612881565b95614cda565b915a90611ba6565b90604051948594636255171f60e01b865260048601909493926001600160a01b03906060936080840197845260208401521660408201520152565b90919592505f82129081611792575b50611772575b509061171161170961041f93614cda565b61041f9291945061170961178861171192612881565b9592935050611761565b90505f61175b565b5080156116e8565b826116de565b6117b184612881565b936116d6565b90506117dc91925060403d6040116117e4575b6117d48183611adf565b81019061276e565b91905f6116bb565b503d6117ca565b909192979695949397303303610706575f81121561058e576102549861154f9160a060405195600160208801526001600160a01b03813561182b81610105565b1660408801526001600160a01b03602082013561184781610105565b1660608801526001600160a01b03604082013561186381610105565b166080880152611889606082013561187a81610105565b6001600160a01b031688840152565b6118a4611898608083016118d8565b62ffffff1660c0890152565b013560e08601528515156101008601526101208501526001600160a01b0316610140840152565b62ffffff81160361011657565b3590610125826118cb565b92610125956119b2610180966119c39361199b6119d4979c9b969c60a06101a08b019e60018c526001600160a01b03813561191d81610105565b1660208d01526001600160a01b03602082013561193981610105565b1660408d01526001600160a01b03604082013561195581610105565b1660608d01526119708c60806060840135916107f883610105565b61198b8c83611981608085016118d8565b62ffffff16910152565b013560c08b0152151560e08a0152565b6101008801526001600160a01b0316610120870152565b6001600160a01b0316610140850152565b6001600160a01b0316610160830152565b6001910152565b91946119c36101259561018095611a986119d4959a9960a06101a089019c5f8a526001600160a01b038135611a0f81610105565b1660208b01526001600160a01b036020820135611a2b81610105565b1660408b01526001600160a01b036040820135611a4781610105565b1660608b0152611a6e6060820135611a5e81610105565b6001600160a01b031660808c0152565b611a88611a7d608083016118d8565b62ffffff168b840152565b013560c0890152151560e0880152565b6101008601525f6101208601526119b2565b634e487b7160e01b5f52604160045260245ffd5b60c0810190811067ffffffffffffffff821117611ada57604052565b611aaa565b90601f8019910116810190811067ffffffffffffffff821117611ada57604052565b60405190610125606083611adf565b6040519061012560a083611adf565b6040519061012561014083611adf565b6040519061012561010083611adf565b6040519061012560c083611adf565b60405190610125608083611adf565b604051906080820182811067ffffffffffffffff821117611ada576040525f6060838281528260208201528260408201520152565b634e487b7160e01b5f52601160045260245ffd5b9190820391821161058957565b600b111561011657565b634e487b7160e01b5f52602160045260245ffd5b600b1115611bdb57565b611bbd565b3561090981611bb3565b359061012582611bb3565b8060020b0361011657565b91908260a09103126101165760405160a0810181811067ffffffffffffffff821117611ada5760405260808082948035611c3981610105565b84526020810135611c4981610105565b60208501526040810135611c5c816118cb565b60408501526060810135611c6f81611bf5565b6060850152013591611c8083610105565b0152565b9190916101808184031261011657610160611d1591611cca611ca4611b2f565b95611cae83611bea565b8752611cbc6020840161011a565b602088015260408301611c00565b6040860152611cdb60e0820161011a565b6060860152611ced610100820161011a565b6080860152611cff610120820161011a565b60a086015261014081013560c08601520161011a565b60e0830152565b5f91031261011657565b90600b821015611bdb5752565b61012590929192610160611e7181610180840196611d5b858235611d5681611bb3565b611d26565b6001600160a01b036020820135611d7181610105565b1660208601526001600160a01b036040820135611d8d81610105565b1660408601526001600160a01b036060820135611da981610105565b16606086015262ffffff6080820135611dc1816118cb565b16608086015260a0810135611dd581611bf5565b60020b60a0860152611dfe60c0820135611dee81610105565b6001600160a01b031660c0870152565b611e1d611e0d60e0830161011a565b6001600160a01b031660e0870152565b611e3e611e2d610100830161011a565b6001600160a01b0316610100870152565b611e5f611e4e610120830161011a565b6001600160a01b0316610120870152565b6101408101356101408601520161011a565b6001600160a01b0316910152565b6040513d5f823e3d90fd5b67ffffffffffffffff8111611ada57601f01601f191660200190565b60405190611eb5602083611adf565b5f8252565b3d15611ee4573d90611ecb82611e8a565b91611ed96040519384611adf565b82523d5f602084013e565b606090565b90611ef2611b5d565b915a926002611f0083611be0565b611f0981611bd1565b14612013576001611f1983611be0565b611f2281611bd1565b14611fd15750303b15610116575f611f6791604051809381927feb55e6f100000000000000000000000000000000000000000000000000000000835260048301611d33565b038183305af19081611fbd575b5061058e57611f81611eba565b916084835110155f1461058e576064604051936024810151855260448101516020860152015160408401525a9003606083015260808201604052565b80610b6c5f611fcb93611adf565b5f611f74565b9192612004611fec611fe761200b943690611c84565b612e61565b91865260208601526001600160a01b03166040850152565b5a90611ba6565b606082015290565b9192612004611fec61202961200b943690611c84565b612d52565b903590601e1981360301821215610116570180359067ffffffffffffffff82116101165760200191813603831361011657565b92919261206d82611e8a565b9161207b6040519384611adf565b829481845281830111610116578281602093845f960137010152565b9080601f830112156101165781602061090993359101612061565b9190916101c081840312610116576120c8611b1f565b926120d282611bea565b84526120e06020830161011a565b60208501526120f28160408401611c00565b604085015261210360e0830161011a565b6060850152612115610100830161011a565b608085015261012082013560a0850152612132610140830161011a565b60c0850152612144610160830161011a565b60e0850152612156610180830161011a565b6101008501526101a082013567ffffffffffffffff81116101165761217b9201612097565b610120830152565b6121916101a082018261202e565b9050151580612336575b8061231a575b806122fe575b61058e576121b481611be0565b6121bd81611bd1565b156122f55760016121cd82611be0565b6121d681611bd1565b146122e25760026121e682611be0565b6121ef81611bd1565b146122cf5760036121ff82611be0565b61220881611bd1565b146122c657600461221882611be0565b61222181611bd1565b146122bd57600561223182611be0565b61223a81611bd1565b146122b457600661224a82611be0565b61225381611bd1565b146122ab57600761226382611be0565b61226c81611bd1565b146122a257600861227c82611be0565b61228581611bd1565b146122995763081ceff360e41b5f5260045ffd5b6102549061489e565b6102549061459f565b610254906142ee565b61025490614108565b61025490613efa565b61025490613bc5565b6122dd6102549136906120b2565b6139ea565b6122f06102549136906120b2565b6135de565b61025490613264565b50600761230a82611be0565b61231381611bd1565b14156121a7565b50600261232682611be0565b61232f81611bd1565b14156121a1565b50600161234282611be0565b61234b81611bd1565b141561219b565b3561090981610105565b600b821015611bdb5752565b6101808183031261011657803561237e81610105565b9261239a602083013561239081610105565b9360408401611c00565b9160e08101356123a981610138565b91610100820135916101208101356123c081610105565b916101606101408301356123d381610138565b92013561090981610105565b90816020910312610116575190565b906101409261243d83612464936001600160a01b036080809282815116855282602082015116602086015262ffffff6040820151166040860152606081015160020b6060860152015116910152565b8051151560a0840152602081015160c0840152604001516001600160a01b031660e0830152565b6101206101008201525f6101208201520190565b600f0b7fffffffffffffffffffffffffffffffff800000000000000000000000000000008114610589575f0390565b91908260809103126101165781516124be81610105565b9160208101516124cd81611bf5565b91606060408301516124de816118cb565b920151610909816118cb565b80929103916101a083126101165760c0813561250581610138565b93601f1901126101165760405161251b81611abe565b602082013561252981610105565b8152604082013561253981610105565b6020820152606082013561254c81610105565b6040820152608082013561255f81610105565b606082015260a0820135612572816118cb565b608082015260c082013560a08201529161258e60e08301610142565b91610100810135916125a3610120830161011a565b916125b1610140820161011a565b916109096101806125c5610160850161011a565b9301610142565b9161263683610140959360a080916001600160a01b0381511684526001600160a01b0360208201511660208501526001600160a01b0360408201511660408501526001600160a01b03606082015116606085015262ffffff60808201511660808501520151910152565b151560c0830152600f0b60e08201526101206101008201525f6101208201520190565b90610160926126c6836126ee9360a080916001600160a01b0381511684526001600160a01b0360208201511660208501526001600160a01b0360408201511660408501526001600160a01b03606082015116606085015262ffffff60808201511660808501520151910152565b8051151560c0840152602081015160e0840152604001516001600160a01b0316610100830152565b6101406101208201525f6101408201520190565b6101259092919260c081019360a080916001600160a01b0381511684526001600160a01b0360208201511660208501526001600160a01b0360408201511660408501526001600160a01b03606082015116606085015262ffffff60808201511660808501520151910152565b9190826040910312610116576020825192015190565b6101e061012061090993602084526127a0602085018251611d26565b60208101516001600160a01b03166040850152612802604082015160608601906001600160a01b036080809282815116855282602082015116602086015262ffffff6040820151166040860152606081015160020b6060860152015116910152565b60608101516001600160a01b031661010085015260808101516001600160a01b03168483015260a081015161014085015260c08101516001600160a01b031661016085015260e08101516001600160a01b03166101808501526101008101516001600160a01b03166101a08501520151916101c08082015201906108d4565b7f80000000000000000000000000000000000000000000000000000000000000008114610589575f0390565b90816020910312610116575161090981610105565b6020818303126101165780519067ffffffffffffffff8211610116570181601f82011215610116578051906128f682611e8a565b926129046040519485611adf565b8284526020838301011161011657815f9260208093018386015e8301015290565b9490929395919561293586614f05565b82151594856129dc575b5050505061296e6001600160a01b03935f9283604051968780958194638154831960e01b8352600483016108f8565b0393165af1908115610474576129a2925f926129b8575b5061298e614fbc565b6129ab575b6020808251830101910161276e565b91156102545791565b6129b3614fe1565b612993565b6129d59192503d805f833e6129cd8183611adf565b8101906128c2565b905f612985565b929591926001600160a01b0316301480159190612a7f575b5061058e5760405192631f213e2d60e21b8452602084600481305afa938415610474576001600160a01b03965f9561296e95612a44938892612a4c575b50612a3e91923691612061565b90614f29565b92819561293f565b612a3e9250612a729060203d602011612a78575b612a6a8183611adf565b8101906128ad565b91612a31565b503d612a60565b6001600160a01b031630141590505f6129f4565b519061ffff8216820361011657565b519063ffffffff8216820361011657565b908160e0910312610116578051612ac981610105565b916020820151612ad881611bf5565b91612ae560408201612a93565b91612af260608301612a93565b91612aff60808201612a93565b9160c0612b0e60a08401612aa2565b92015161090981610138565b612b6f5f916001600160a01b0393817f877b2b8439a2f09fcf270e240004e4f37f2fd6852f7b25487843cdc62828247b5d83604051958680958194638154831960e01b835260206004840181815201906108d4565b0393165af19081612c19575b50612bba57612bb3612b8b611eba565b5f7f877b2b8439a2f09fcf270e240004e4f37f2fd6852f7b25487843cdc62828247b5d61508a565b9192909190565b6040517f08c379a000000000000000000000000000000000000000000000000000000000815260206004820152601360248201527f51756f74652073686f756c6420726576657274000000000000000000000000006044820152606490fd5b612c2c903d805f833e6129cd8183611adf565b612b7b565b9590979692946001600160a01b0394612ca161016097878096816101808d019e168c521660208b015260408a01906001600160a01b036080809282815116855282602082015116602086015262ffffff6040820151166040860152606081015160020b6060860152015116910152565b151560e088015261010087015216610120850152600161014085015216910152565b929461016094612d335f976001600160a01b0380969b9a959b816101808a019d16895216602088015260408701906001600160a01b036080809282815116855282602082015116602086015262ffffff6040820151166040860152606081015160020b6060860152015116910152565b151560e085015261010084015216610120820152826101408201520152565b5f612e218192612e046107c4612dfb6020612d7760808601516001600160a01b031690565b94612ded6040820151966001600160a01b03612da06107c46107c48b516001600160a01b031690565b91161496612ddf60c0840151612dc060e08601516001600160a01b031690565b60608601516001600160a01b0316916040519b8c9530308b8901612c31565b03601f198101885287611adf565b01516001600160a01b031690565b6107c4816150e7565b906040519485809481936348c8949160e01b8352600483016108f8565b03925af19081612e49575b50612bba57612bb3612e3c611eba565b612e4461510b565b61508a565b612e5c903d805f833e6129cd8183611adf565b612e2c565b60208101612e7c6107c46107c483516001600160a01b031690565b9060405191630dfe168160e01b8352602083600481845afa801561047457612f71946040945f92613006575b5060808101916001600160a01b0380612ec885516001600160a01b031690565b921691161491612ee260e08301516001600160a01b031690565b946001600160a01b03861615612fba575b91612f2560c092612f1d612f0f5f96516001600160a01b031690565b91516001600160a01b031690565b903090615130565b01518551630251596160e31b8152306004820152921515602484015260448301526001600160a01b03909316606482015260a060848201525f60a48201529384928391829060c4820190565b03925af19081612f9c575b50612f9457612bb3612f8c611eba565b612e44615247565b61058e615247565b612fb49060403d6040116117e4576117d48183611adf565b50612f7c565b94505f91612f2560c092858514612fe657612f1d612f0f6401000276a45b999496505050925050612ef3565b612f1d612f0f73fffd8963efd1fc6a506488495d951d5263988d25612fd8565b61302091925060203d602011612a7857612a6a8183611adf565b905f612ea8565b7f903e8b67161d17b9057004cf2699758964ba59c3d1540d27cbcdc8b8a60fb0205c7f903e8b67161d17b9057004cf2699758964ba59c3d1540d27cbcdc8b8a60fb0215c90601f60405192808452018060051c5f5b8181106130c8575050601f191682016020016040526001600160a01b038116156130c4575f9182916130ac614fe1565b602082519201905af4156130bc57565b3d5f803e3d5ffd5b5050565b807f903e8b67161d17b9057004cf2699758964ba59c3d1540d27cbcdc8b8a60fb022600192015c60208260051b880101520161307c565b9290916001600160a01b039081604051947f23b872dd000000000000000000000000000000000000000000000000000000005f52166004521660245260445260205f60648180865af160015f5114811615613183575b6040919091525f606052155b6131685750565b635274afe760e01b5f526001600160a01b031660045260245ffd5b6001811516613199573d15833b15151616613155565b503d5f823e3d90fd5b916001600160a01b03604051927fa9059cbb000000000000000000000000000000000000000000000000000000005f521660045260245260205f60448180865af160015f51148116156131fc575b60409190915215613161565b6001811516613199573d15833b151516166131f0565b51906dffffffffffffffffffffffffffff8216820361011657565b908160609103126101165761324181613212565b91610909604061325360208501613212565b9301612aa2565b35610909816118cb565b9060208201916132796107c46107c485612352565b60405191630dfe168160e01b8352602083600481855afa928315610474575f936135bd575b506040519163d21220a760e01b8352602083600481845afa8015610474576001600160a01b03935f9161359e575b5060e0830194846132dc87612352565b9116948591161493845f1461354f57506001600160a01b03806133026101008601612352565b9216911603613541575b60405193630240bc6b60e21b8552606085600481855afa8015610474575f955f9161350b575b5061334a6133426080860161325a565b62ffffff1690565b958615613501575b620f424087101561058e576101208501355f8112156134f95761337490612881565b9687925b87156134d657916dffffffffffffffffffffffffffff8061339c94169116846152e8565b975b61016085016133ac81612352565b6001600160a01b031630036134af57506133d46133ce6107c46133da95612352565b91612352565b906131a2565b82156134a8575f905b831561349b576133f861018088945b01612352565b90803b15610116576040517f022c0d9f000000000000000000000000000000000000000000000000000000008152600481019390935260248301939093526001600160a01b03166044820152608060648201525f608482018190529091829060a490829084905af1801561047457613487575b501561347e5761347a90612881565b9190565b61090990612881565b80610b6c5f61349593611adf565b5f61346b565b6133f86101805f946133f2565b85906133e3565b906134cb6133ce6134c56107c46134d197612352565b93612352565b916130ff565b6133da565b6dffffffffffffffffffffffffffff806134f394169116846152e8565b9761339e565b968792613378565b610bb89650613352565b905061353091955060603d60601161353a575b6135288183611adf565b81019061322d565b509490945f613332565b503d61351e565b62820f3560e61b5f5260045ffd5b906001600160a01b038061356288612352565b921691161490811591613584575b501561330c5762820f3560e61b5f5260045ffd5b90506135966107c46101008501612352565b14155f613570565b6135b7915060203d602011612a7857612a6a8183611adf565b5f6132cc565b6135d791935060203d602011612a7857612a6a8183611adf565b915f61329e565b60208101916135fa6107c46107c485516001600160a01b031690565b91604051630dfe168160e01b8152602081600481875afa908115610474575f916139cb575b506040519463d21220a760e01b8652602086600481885afa958615610474575f966139aa575b5060608301956001600160a01b038061366589516001600160a01b031690565b941693169280841493845f1461395f5750506001600160a01b038061369460808701516001600160a01b031690565b9216911603613541576136db956136b66136e1925b516001600160a01b031690565b906136cb60e08601516001600160a01b031690565b978891516001600160a01b031690565b916151bc565b6101208201805151151595866138c8575b505060406137729461370e60c08501516001600160a01b031690565b906001600160a01b03821615613899575b60a08501515f8451809981958294630251596160e31b8452893060048601926001600160a01b03928360c0969316855215156020850152604084015216606082015260a060808201525f60a08201520190565b03925af18015610474575f945f91613874575b5080948096613792615247565b613867575b6101008401926137ae84516001600160a01b031690565b90306001600160a01b038316036137c8575b505050505050565b156138285750505f81126137e6575b5050505b5f80808080806137c0565b61381a6138146138066107c460806138209701516001600160a01b031690565b93516001600160a01b031690565b91612881565b916131a2565b5f80806137d7565b915091505f821261383c575b5050506137db565b61381a6138596107c4608061385f9601516001600160a01b031690565b92612881565b5f8080613834565b61386f614fe1565b613797565b905061389091945060403d6040116117e4576117d48183611adf565b9390935f613785565b905082156138ae576401000276a45b9061371f565b73fffd8963efd1fc6a506488495d951d5263988d256138a8565b6001600160a01b0316301480159061393e575b61058e5760405194631f213e2d60e21b8652602086600481305afa9586156104745761377296604093613917925f9261391d575b505190614f29565b946136f2565b61393791925060203d602011612a7857612a6a8183611adf565b905f61390f565b50306139586107c46101008601516001600160a01b031690565b14156138db565b90916001600160a01b03161490811591613989575b50613541576136db956136b66136e1926136a9565b90506139a26107c460808601516001600160a01b031690565b14155f613974565b6139c491965060203d602011612a7857612a6a8183611adf565b945f613645565b6139e4915060203d602011612a7857612a6a8183611adf565b5f61361f565b60608101516001600160a01b03166040820151906001600160a01b03613a1d6107c46107c485516001600160a01b031690565b9116149160e0810191613a8d613a3a84516001600160a01b031690565b613a7f610100850193613a5485516001600160a01b031690565b9760a087015190613a6f60c08901516001600160a01b031690565b926040519a8b9660208801612cc3565b03601f198101865285611adf565b6101206020830192613aae613aa985516001600160a01b031690565b6150e7565b019081515115159384613b34575b505050613af95f93613adc6107c46107c48795516001600160a01b031690565b906040519586809481936348c8949160e01b8352600483016108f8565b03925af190811561047457610254925f92613b18575b5061298e61510b565b613b2d9192503d805f833e6129cd8183611adf565b905f613b0f565b519192916001600160a01b03166001600160a01b0316301480159190613ba7575b5061058e5760405193631f213e2d60e21b8552602085600481305afa948515610474576107c46107c4613af994613b9b5f998a98613adc968a9261391d57505190614f29565b95505050819550613abc565b51309150613bbd906001600160a01b03166107c4565b14155f613b55565b9060208201613bd66107c482612352565b6001600160a01b0316925f199182905f5b60088110613d76575b505f82600f0b128015613d6a575b61354157613cb995613c66945f6020946101208701358281128314613d6157613c2690612881565b978880965b89826101608201613c3b81612352565b6001600160a01b0330911603613d37575b50506133ce6107c460e0613c609301612352565b906153fe565b604051998a95869485937f3df021240000000000000000000000000000000000000000000000000000000085526004850160609194935f936080830196600f0b8352600f0b602083015260408201520152565b03925af1938415610474575f94613d10575b5090818461018061347a940130613ce46107c483612352565b03613cf2575b505050612881565b6133d46133ce6107c4610100613d089601612352565b5f8481613cea565b61347a92919450613d2f9060203d602011610d9857610d898183611adf565b939091613ccb565b613d496107c460e0613d599501612352565b613d533092612352565b906130ff565b89825f613c4c565b97888096613c2b565b505f84600f0b12613bfe565b6040517fc6610657000000000000000000000000000000000000000000000000000000008152600481018290526020816024818b5afa5f9181613e16575b50613dbf5750613bf0565b6001600160a01b03613dd66107c460e08801612352565b9116908114613e0a575b613df06107c46101008701612352565b14613dfe575b600101613be7565b600f81900b9450613df6565b925080600f0b92613de0565b613e2f91925060203d8111612a7857612a6a8183611adf565b905f613db4565b9092919260e08252805160e08301526020810151906002821015611bdb5760a0613eac91613eeb936101008601526001600160a01b036040820151166101208601526001600160a01b036060820151166101408601526080810151610160860152015160c06101808501526101a08401906108d4565b936020830190606080916001600160a01b0381511684526020810151151560208501526001600160a01b03604082015116604085015201511515910152565b5f60a082015260c05f19910152565b906004916020613f116107c46107c4838501612352565b604051948580927f38fff2d00000000000000000000000000000000000000000000000000000000082525afa92831561047457614074936020915f916140eb575b506140156107c46101806101208601355f8112156140e557613f7390612881565b955b610160810187613f8482612352565b6001600160a01b03309116036140cb575b5050613ffc613fbb60e08301613fb68a613fb16107c484612352565b615353565b612352565b613fec613fcb6101008501612352565b91613fd4611b3f565b9889525f8a8a01526001600160a01b03166040890152565b6001600160a01b03166060870152565b86608086015261400a611ea6565b60a086015201612352565b9061403a614021611b4e565b308152925f848601526001600160a01b03166040840152565b5f606083015260405195869283927f52bbbe2900000000000000000000000000000000000000000000000000000000845260048401613e36565b03815f73ba12222222228d8ba445958a75a0704d566bf2c85af1928315610474575f936140a6575b5061347a90612881565b61347a9193506140c49060203d602011610d9857610d898183611adf565b929061409c565b6140de91613d496107c460e08601612352565b5f87613f95565b95613f75565b6141029150823d8411610d9857610d898183611adf565b5f613f52565b90602082019161411d6107c46107c485612352565b90604051907f4a248d2a000000000000000000000000000000000000000000000000000000008252602082600481865afa928315610474575f9360209385916142d1575b506001600160a01b038060e085019261417984612352565b936101208701358981128a146142ca5761419290612881565b809b5b61016089016141a381612352565b861630148c146142af57506133d46133ce6107c46141c095612352565b16911614841461425a576141da61018061421f9301612352565b6040519485809481937fbd6015b4000000000000000000000000000000000000000000000000000000008352600483019190916001600160a01b036020820193169052565b03925af180156104745761347a915f9161423b575b5092612881565b614254915060203d602011610d9857610d898183611adf565b5f614234565b61426a61018061421f9301612352565b6040519485809481937fdd93f59a000000000000000000000000000000000000000000000000000000008352600483019190916001600160a01b036020820193169052565b906134cb6133ce6134c56107c46142c597612352565b6141c0565b809b614195565b6142e89150843d8611612a7857612a6a8183611adf565b5f614161565b9060208201916143036107c46107c485612352565b92604051937f05e8746d000000000000000000000000000000000000000000000000000000008552602085600481845afa948515610474575f9561457e575b5060e083019161435183612352565b916101208501355f8112156145785761436990612881565b965b6101008601946143c16143836107c46107c489612352565b9460206101808a019661439588612352565b9060405180809681946370a0823160e01b8352600483019190916001600160a01b036020820193169052565b03915afa988915610474578b925f9a61453b575b5093602095936001600160a01b0395935f936101608896016143f681612352565b87163014861461452057506133d46133ce6107c461441395612352565b61447161441f88612352565b604051998a97889687957f53c059a000000000000000000000000000000000000000000000000000000000875216911614600484019092916001600160a01b0360209160408401951515845216910152565b03925af18015610474576133ce6107c46107c46144c69660209661449a95614505575b50612352565b9060405180809581946370a0823160e01b8352600483019190916001600160a01b036020820193169052565b03915afa9182156104745761347a92613859925f916144e6575b50611ba6565b6144ff915060203d602011610d9857610d898183611adf565b5f6144e0565b61451b90883d8a11610d9857610d898183611adf565b614494565b906134cb6133ce6134c56107c461453697612352565b614413565b6001600160a01b0395919a509385935f9361016061456860209a988b3d8d11610d9857610d898183611adf565b9d949850509350935093956143d5565b9661436b565b61459891955060203d602011612a7857612a6a8183611adf565b935f614342565b90602082016145b36107c46107c483612352565b90604051937f0fc63d10000000000000000000000000000000000000000000000000000000008552602085600481865afa948515610474575f9561487d575b5060e08101946001600160a01b038061460a88612352565b921691161461464b6146336101208401355f81125f1461462d5761462d90612881565b94612352565b6101608401976146456133ce8a612352565b9161544b565b6101a0820161465a818461202e565b9050151596876147ba575b5050926146ad610180604094936133f261475097805f146147ab5761469e637fffffff915b614692611b4e565b98895215156020890152565b5f8789015260030b6060870152565b5f84518096819582947f3eece7db0000000000000000000000000000000000000000000000000000000084526004840190610100926001600160a01b03606092168352805160208401526020810151151560408401526040810151151582840152015160030b608082015260c060a0820152600160c08201527f010000000000000000000000000000000000000000000000000000000000000060e08201520190565b03925af1928315610474575f915f94614784575b509061347a916147726154b3565b156128815761477f614fe1565b612881565b6147a391945061347a925060403d6040116117e4576117d48183611adf565b939091614764565b61469e637fffffff199161468a565b6147c990959294939195612352565b6001600160a01b03163014801590614864575b61058e5760405190631f213e2d60e21b8252602082600481305afa908115610474576133f260409661482f610180946147509a6146ad975f9261483b575b50614828612a3e918761202e565b3691612061565b94975050939450614665565b612a3e91925061485c6148289160203d602011612a7857612a6a8183611adf565b92915061481a565b50306148766107c46101808401612352565b14156147dc565b61489791955060203d602011612a7857612a6a8183611adf565b935f6145f2565b906101208201355f8112156149c3576148b690612881565b6101608301816148c582612352565b6001600160a01b03309116036149a9575b6020915060e085016149076133ce6107c46107c46148f66107c486612352565b613fb687898d0192613c6084612352565b955f61492361018061491c6101008501612352565b9301612352565b9761498e604051998a96879586947f7dc20382000000000000000000000000000000000000000000000000000000008652600486019094936001600160a01b03905f948260a0958160c087019a16865216602085015260408401528460608401521660808201520152565b03925af1928315610474575f936140a6575061347a90612881565b6149bc91613d496107c460e08801612352565b5f816148d6565b6148b6565b604051614a166020820180936001600160a01b036080809282815116855282602082015116602086015262ffffff6040820151166040860152606081015160020b6060860152015116910152565b60a08152614a2560c082611adf565b51902090565b929091926001600160a01b03831690811561058e576001600160a01b031691823b1561011657604051632961046560e21b81526001600160a01b0390941660048501525f8480602481015b038183875af18015610474575f956020958592614af6575b50306001600160a01b038216148714614ae85750614aab926131a2565b600460405180948193630476982d60e21b83525af1801561047457614acd5750565b614ae59060203d602011610d9857610d898183611adf565b50565b614af1936130ff565b614aab565b80610b6c89614b0493611adf565b5f614a8e565b929091926001600160a01b038316908115614b59576001600160a01b031691823b1561011657604051632961046560e21b81526001600160a01b0390941660048501525f848060248101614a76565b925050916001600160a01b033091160361058e576001600160a01b0360046020926040519485938492630476982d60e21b8452165af1801561047457614acd5750565b614ba581611be0565b614bae81611bd1565b158015614ca1575b15614c37576001600160a01b036020614be0610100614bd96107c4848701612352565b9401612352565b92600460405180948193630dfe168160e01b8352165afa908115610474576001600160a01b039182915f91614c18575b501691161490565b614c31915060203d602011612a7857612a6a8183611adf565b5f614c10565b6002614c4282611be0565b614c4b81611bd1565b14614c74576001600160a01b03614c6e6107c4610120614bd96101008601612352565b91161090565b6001600160a01b03614c9b6107c46107c46040614c946101008701612352565b9501612352565b91161490565b506001614cad82611be0565b614cb681611bd1565b14614bb6565b8115614cc6570490565b634e487b7160e01b5f52601260045260245ffd5b905f91614ce681611be0565b614cef81611bd1565b614dd4576060614d096107c46107c4602060049501612352565b60405192838092630240bc6b60e21b82525afa908115610474575f905f92614da3575b506dffffffffffffffffffffffffffff169081151580614d8a575b614d4f575050565b61090992935090614d85614d7e614d786dffffffffffffffffffffffffffff6107c4951661551e565b9261551e565b9160601b90565b614cbc565b506dffffffffffffffffffffffffffff81161515614d47565b6dffffffffffffffffffffffffffff9250614dcd915060603d60601161353a576135288183611adf565b5091614d2c565b90916001614de183611be0565b614dea81611bd1565b03614e4c575060e0614e066107c46107c4602060049501612352565b60405192838092633850c7bd60e01b82525afa908115610474575f91614e2a575090565b614e43915060e03d60e01161046d576104588183611adf565b50505050505090565b91906002614e5982611be0565b614e6281611bd1565b14614e6a5750565b60e08101906001600160a01b03614e8083612352565b16614e89575050565b614ed192935090614eb16107c46107c46134c5614eac6080966040369101611c00565b6149c8565b6040518080958194633205590760e21b8352600483019190602083019252565b03915afa908115610474575f91614ee6575090565b614eff915060803d608011610cfe57610ced8183611adf565b50505090565b7f877b2b8439a2f09fcf270e240004e4f37f2fd6852f7b25487843cdc62828247b5d565b7f903e8b67161d17b9057004cf2699758964ba59c3d1540d27cbcdc8b8a60fb0205d601f8151807f903e8b67161d17b9057004cf2699758964ba59c3d1540d27cbcdc8b8a60fb0215d0160051c905f5b828110614f8557505050565b80602060019260051b840101517f903e8b67161d17b9057004cf2699758964ba59c3d1540d27cbcdc8b8a60fb02282015d01614f79565b5f7f877b2b8439a2f09fcf270e240004e4f37f2fd6852f7b25487843cdc62828247b5d565b601f7f903e8b67161d17b9057004cf2699758964ba59c3d1540d27cbcdc8b8a60fb0215c5f7f903e8b67161d17b9057004cf2699758964ba59c3d1540d27cbcdc8b8a60fb0205d5f7f903e8b67161d17b9057004cf2699758964ba59c3d1540d27cbcdc8b8a60fb0215d0160051c5f5b81811061505c575050565b805f7f903e8b67161d17b9057004cf2699758964ba59c3d1540d27cbcdc8b8a60fb022600193015d01615051565b805191600483101561509d575b50602001fd5b636255171f60e01b7fffffffff0000000000000000000000000000000000000000000000000000000060208401511603615097576024820151604483015160649093015190935090565b7f90e3c11b9f78c2665fff76a0877f21f24da1c72476ad322cf0a9a0540c01f5575d565b5f7f90e3c11b9f78c2665fff76a0877f21f24da1c72476ad322cf0a9a0540c01f5575d565b7f8262aa0aaf259c3b6dbf5360db70d05feb8ca82e122fcaf57c4a3f4362a7f5ff5d7f8262aa0aaf259c3b6dbf5360db70d05feb8ca82e122fcaf57c4a3f4362a7f6005d7f8262aa0aaf259c3b6dbf5360db70d05feb8ca82e122fcaf57c4a3f4362a7f6015d60017f8262aa0aaf259c3b6dbf5360db70d05feb8ca82e122fcaf57c4a3f4362a7f6025d565b7f8262aa0aaf259c3b6dbf5360db70d05feb8ca82e122fcaf57c4a3f4362a7f5ff5d7f8262aa0aaf259c3b6dbf5360db70d05feb8ca82e122fcaf57c4a3f4362a7f6005d7f8262aa0aaf259c3b6dbf5360db70d05feb8ca82e122fcaf57c4a3f4362a7f6015d5f7f8262aa0aaf259c3b6dbf5360db70d05feb8ca82e122fcaf57c4a3f4362a7f6025d565b5f7f8262aa0aaf259c3b6dbf5360db70d05feb8ca82e122fcaf57c4a3f4362a7f5ff5d5f7f8262aa0aaf259c3b6dbf5360db70d05feb8ca82e122fcaf57c4a3f4362a7f6005d5f7f8262aa0aaf259c3b6dbf5360db70d05feb8ca82e122fcaf57c4a3f4362a7f6015d5f7f8262aa0aaf259c3b6dbf5360db70d05feb8ca82e122fcaf57c4a3f4362a7f6025d565b8181029291811591840414171561058957565b919091801561058e5782159384801561534b575b61058e57620f42400390620f42408211610589576153249161531d916152d5565b91826152d5565b92620f42408302928304620f42401417156105895781018091116105895761090991614cbc565b5082156152fc565b906153738173ba12222222228d8ba445958a75a0704d566bf2c884615566565b1561537c575050565b61539a73ba12222222228d8ba445958a75a0704d566bf2c8836155b4565b156153e2576153be9073ba12222222228d8ba445958a75a0704d566bf2c883615613565b156153c65750565b6001600160a01b0390635274afe760e01b5f521660045260245ffd5b6001600160a01b0382635274afe760e01b5f521660045260245ffd5b919061540b828285615566565b1561541557505050565b61541f81846155b4565b1561542f57906153be9183615613565b6001600160a01b0383635274afe760e01b5f521660045260245ffd5b7fd86eb83254f68c5dfc4e225ac5a8c924b574715967dc213ac588c21d7c8833db5d7fd86eb83254f68c5dfc4e225ac5a8c924b574715967dc213ac588c21d7c8833dc5d7fd86eb83254f68c5dfc4e225ac5a8c924b574715967dc213ac588c21d7c8833dd5d565b5f7fd86eb83254f68c5dfc4e225ac5a8c924b574715967dc213ac588c21d7c8833db5d5f7fd86eb83254f68c5dfc4e225ac5a8c924b574715967dc213ac588c21d7c8833dc5d5f7fd86eb83254f68c5dfc4e225ac5a8c924b574715967dc213ac588c21d7c8833dd5d565b801561556157600181018082116105895760011c815b82821061554057505090565b9091508161554e8183614cbc565b9081018091116105895760011c90615534565b505f90565b92916001600160a01b036040519263095ea7b360e01b5f521660045260245260205f60448180875af19260015f51148416156155a3575b50604052565b3d15903b151516909216915f61559d565b91906001600160a01b036040519163095ea7b360e01b5f52166004525f60245260205f60448180875af19260015f51148416156155f15750604052565b6001849294151661560a573b15153d151616915f61559d565b833d5f823e3d90fd5b92916001600160a01b036040519263095ea7b360e01b5f521660045260245260205f60448180875af19260015f51148416156155f1575060405256fea264697066735822122008d34f070a4925e4a041100f315fa75235a3c0fb5133eb5542d5f2e520845fda64736f6c634300081b0033","linkReferences":{}},"methodIdentifiers":{"algebraSwapCallback(int256,int256,bytes)":"2c8958f6","lockAcquired(bytes)":"ab6291fe","maverickV2SwapCallback(address,uint256,uint256,bytes)":"67ca7c91","pancakeV3SwapCallback(int256,int256,bytes)":"23a69e75","quote((uint8,address,(address,address,uint24,int24,address),address,address,address,int256,uint160))":"67a6265e","quoteInfinityBin(address,(address,address,address,address,uint24,bytes32),bool,int128)":"92b16866","quoteInfinityCL(address,(address,address,address,address,uint24,bytes32),bool,int256,uint160)":"400f5106","simulateSwap((uint8,address,(address,address,uint24,int24,address),address,address,address,int256,uint160))":"eb55e6f1","swap((uint8,address,(address,address,uint24,int24,address),address,address,int256,uint160,address,address,bytes))":"719b4468","swapInfinityBin(address,(address,address,address,address,uint24,bytes32),bool,int128,address,address,bytes)":"c3b093a8","swapInfinityCL(address,(address,address,address,address,uint24,bytes32),bool,int256,uint160,address,address,bytes)":"0249b0f6","swapV3(address,address,address,int256,uint160,address,address)":"a5e2989d","swapV4(address,(address,address,uint24,int24,address),bool,int256,uint160,address,address)":"7c9e9da3","uniswapV3SwapCallback(int256,int256,bytes)":"fa461e33","unlockCallback(bytes)":"91dd7346"},"id":19}