{"abi":[{"type":"receive","stateMutability":"payable"},{"type":"function","name":"algebraSwapCallback","inputs":[{"name":"amount0Delta","type":"int256","internalType":"int256"},{"name":"amount1Delta","type":"int256","internalType":"int256"},{"name":"","type":"bytes","internalType":"bytes"}],"outputs":[],"stateMutability":"nonpayable"},{"type":"function","name":"lockAcquired","inputs":[{"name":"data","type":"bytes","internalType":"bytes"}],"outputs":[{"name":"","type":"bytes","internalType":"bytes"}],"stateMutability":"nonpayable"},{"type":"function","name":"maverickV2SwapCallback","inputs":[{"name":"","type":"address","internalType":"contract IERC20"},{"name":"amountIn","type":"uint256","internalType":"uint256"},{"name":"","type":"uint256","internalType":"uint256"},{"name":"","type":"bytes","internalType":"bytes"}],"outputs":[],"stateMutability":"nonpayable"},{"type":"function","name":"pancakeV3SwapCallback","inputs":[{"name":"amount0Delta","type":"int256","internalType":"int256"},{"name":"amount1Delta","type":"int256","internalType":"int256"},{"name":"","type":"bytes","internalType":"bytes"}],"outputs":[],"stateMutability":"nonpayable"},{"type":"function","name":"quote","inputs":[{"name":"params","type":"tuple","internalType":"struct QuoteParams","components":[{"name":"poolType","type":"uint8","internalType":"enum SwapPoolType"},{"name":"pool","type":"address","internalType":"address"},{"name":"poolKey","type":"tuple","internalType":"struct PoolKey","components":[{"name":"currency0","type":"address","internalType":"Currency"},{"name":"currency1","type":"address","internalType":"Currency"},{"name":"fee","type":"uint24","internalType":"uint24"},{"name":"tickSpacing","type":"int24","internalType":"int24"},{"name":"hooks","type":"address","internalType":"address"}]},{"name":"stateView","type":"address","internalType":"address"},{"name":"tokenIn","type":"address","internalType":"address"},{"name":"tokenOut","type":"address","internalType":"address"},{"name":"amountSpecified","type":"int256","internalType":"int256"},{"name":"sqrtPriceLimitX96","type":"uint160","internalType":"uint160"}]}],"outputs":[{"name":"result","type":"tuple","internalType":"struct SwapQuoteResult","components":[{"name":"amountIn","type":"uint256","internalType":"uint256"},{"name":"amountOut","type":"uint256","internalType":"uint256"},{"name":"sqrtPriceAfter","type":"uint160","internalType":"uint160"},{"name":"gasEstimate","type":"uint256","internalType":"uint256"}]}],"stateMutability":"nonpayable"},{"type":"function","name":"quoteInfinityBin","inputs":[{"name":"vault","type":"address","internalType":"address"},{"name":"key","type":"tuple","internalType":"struct InfinityPoolKey","components":[{"name":"currency0","type":"address","internalType":"Currency"},{"name":"currency1","type":"address","internalType":"Currency"},{"name":"hooks","type":"address","internalType":"address"},{"name":"poolManager","type":"address","internalType":"address"},{"name":"fee","type":"uint24","internalType":"uint24"},{"name":"parameters","type":"bytes32","internalType":"bytes32"}]},{"name":"swapForY","type":"bool","internalType":"bool"},{"name":"amountSpecified","type":"int128","internalType":"int128"}],"outputs":[{"name":"result","type":"tuple","internalType":"struct SwapQuoteResult","components":[{"name":"amountIn","type":"uint256","internalType":"uint256"},{"name":"amountOut","type":"uint256","internalType":"uint256"},{"name":"sqrtPriceAfter","type":"uint160","internalType":"uint160"},{"name":"gasEstimate","type":"uint256","internalType":"uint256"}]}],"stateMutability":"nonpayable"},{"type":"function","name":"quoteInfinityCL","inputs":[{"name":"vault","type":"address","internalType":"address"},{"name":"key","type":"tuple","internalType":"struct InfinityPoolKey","components":[{"name":"currency0","type":"address","internalType":"Currency"},{"name":"currency1","type":"address","internalType":"Currency"},{"name":"hooks","type":"address","internalType":"address"},{"name":"poolManager","type":"address","internalType":"address"},{"name":"fee","type":"uint24","internalType":"uint24"},{"name":"parameters","type":"bytes32","internalType":"bytes32"}]},{"name":"zeroForOne","type":"bool","internalType":"bool"},{"name":"amountSpecified","type":"int256","internalType":"int256"},{"name":"sqrtPriceLimitX96","type":"uint160","internalType":"uint160"}],"outputs":[{"name":"result","type":"tuple","internalType":"struct SwapQuoteResult","components":[{"name":"amountIn","type":"uint256","internalType":"uint256"},{"name":"amountOut","type":"uint256","internalType":"uint256"},{"name":"sqrtPriceAfter","type":"uint160","internalType":"uint160"},{"name":"gasEstimate","type":"uint256","internalType":"uint256"}]}],"stateMutability":"nonpayable"},{"type":"function","name":"simulateSwap","inputs":[{"name":"params","type":"tuple","internalType":"struct QuoteParams","components":[{"name":"poolType","type":"uint8","internalType":"enum SwapPoolType"},{"name":"pool","type":"address","internalType":"address"},{"name":"poolKey","type":"tuple","internalType":"struct PoolKey","components":[{"name":"currency0","type":"address","internalType":"Currency"},{"name":"currency1","type":"address","internalType":"Currency"},{"name":"fee","type":"uint24","internalType":"uint24"},{"name":"tickSpacing","type":"int24","internalType":"int24"},{"name":"hooks","type":"address","internalType":"address"}]},{"name":"stateView","type":"address","internalType":"address"},{"name":"tokenIn","type":"address","internalType":"address"},{"name":"tokenOut","type":"address","internalType":"address"},{"name":"amountSpecified","type":"int256","internalType":"int256"},{"name":"sqrtPriceLimitX96","type":"uint160","internalType":"uint160"}]}],"outputs":[],"stateMutability":"nonpayable"},{"type":"function","name":"swap","inputs":[{"name":"params","type":"tuple","internalType":"struct SwapParams","components":[{"name":"poolType","type":"uint8","internalType":"enum SwapPoolType"},{"name":"pool","type":"address","internalType":"address"},{"name":"poolKey","type":"tuple","internalType":"struct PoolKey","components":[{"name":"currency0","type":"address","internalType":"Currency"},{"name":"currency1","type":"address","internalType":"Currency"},{"name":"fee","type":"uint24","internalType":"uint24"},{"name":"tickSpacing","type":"int24","internalType":"int24"},{"name":"hooks","type":"address","internalType":"address"}]},{"name":"tokenIn","type":"address","internalType":"address"},{"name":"tokenOut","type":"address","internalType":"address"},{"name":"amountSpecified","type":"int256","internalType":"int256"},{"name":"sqrtPriceLimitX96","type":"uint160","internalType":"uint160"},{"name":"payer","type":"address","internalType":"address"},{"name":"recipient","type":"address","internalType":"address"}]}],"outputs":[{"name":"amount0","type":"int256","internalType":"int256"},{"name":"amount1","type":"int256","internalType":"int256"}],"stateMutability":"nonpayable"},{"type":"function","name":"swapInfinityBin","inputs":[{"name":"vault","type":"address","internalType":"address"},{"name":"key","type":"tuple","internalType":"struct InfinityPoolKey","components":[{"name":"currency0","type":"address","internalType":"Currency"},{"name":"currency1","type":"address","internalType":"Currency"},{"name":"hooks","type":"address","internalType":"address"},{"name":"poolManager","type":"address","internalType":"address"},{"name":"fee","type":"uint24","internalType":"uint24"},{"name":"parameters","type":"bytes32","internalType":"bytes32"}]},{"name":"swapForY","type":"bool","internalType":"bool"},{"name":"amountSpecified","type":"int128","internalType":"int128"},{"name":"payer","type":"address","internalType":"address"},{"name":"recipient","type":"address","internalType":"address"}],"outputs":[{"name":"amount0","type":"int256","internalType":"int256"},{"name":"amount1","type":"int256","internalType":"int256"}],"stateMutability":"nonpayable"},{"type":"function","name":"swapInfinityCL","inputs":[{"name":"vault","type":"address","internalType":"address"},{"name":"key","type":"tuple","internalType":"struct InfinityPoolKey","components":[{"name":"currency0","type":"address","internalType":"Currency"},{"name":"currency1","type":"address","internalType":"Currency"},{"name":"hooks","type":"address","internalType":"address"},{"name":"poolManager","type":"address","internalType":"address"},{"name":"fee","type":"uint24","internalType":"uint24"},{"name":"parameters","type":"bytes32","internalType":"bytes32"}]},{"name":"zeroForOne","type":"bool","internalType":"bool"},{"name":"amountSpecified","type":"int256","internalType":"int256"},{"name":"sqrtPriceLimitX96","type":"uint160","internalType":"uint160"},{"name":"payer","type":"address","internalType":"address"},{"name":"recipient","type":"address","internalType":"address"}],"outputs":[{"name":"amount0","type":"int256","internalType":"int256"},{"name":"amount1","type":"int256","internalType":"int256"}],"stateMutability":"nonpayable"},{"type":"function","name":"swapV3","inputs":[{"name":"pool","type":"address","internalType":"address"},{"name":"tokenIn","type":"address","internalType":"address"},{"name":"tokenOut","type":"address","internalType":"address"},{"name":"amountSpecified","type":"int256","internalType":"int256"},{"name":"sqrtPriceLimitX96","type":"uint160","internalType":"uint160"},{"name":"payer","type":"address","internalType":"address"},{"name":"recipient","type":"address","internalType":"address"}],"outputs":[{"name":"amount0","type":"int256","internalType":"int256"},{"name":"amount1","type":"int256","internalType":"int256"}],"stateMutability":"nonpayable"},{"type":"function","name":"swapV4","inputs":[{"name":"poolManager","type":"address","internalType":"address"},{"name":"key","type":"tuple","internalType":"struct PoolKey","components":[{"name":"currency0","type":"address","internalType":"Currency"},{"name":"currency1","type":"address","internalType":"Currency"},{"name":"fee","type":"uint24","internalType":"uint24"},{"name":"tickSpacing","type":"int24","internalType":"int24"},{"name":"hooks","type":"address","internalType":"address"}]},{"name":"zeroForOne","type":"bool","internalType":"bool"},{"name":"amountSpecified","type":"int256","internalType":"int256"},{"name":"sqrtPriceLimitX96","type":"uint160","internalType":"uint160"},{"name":"payer","type":"address","internalType":"address"},{"name":"recipient","type":"address","internalType":"address"}],"outputs":[{"name":"amount0","type":"int256","internalType":"int256"},{"name":"amount1","type":"int256","internalType":"int256"}],"stateMutability":"nonpayable"},{"type":"function","name":"uniswapV3SwapCallback","inputs":[{"name":"amount0Delta","type":"int256","internalType":"int256"},{"name":"amount1Delta","type":"int256","internalType":"int256"},{"name":"","type":"bytes","internalType":"bytes"}],"outputs":[],"stateMutability":"nonpayable"},{"type":"function","name":"unlockCallback","inputs":[{"name":"data","type":"bytes","internalType":"bytes"}],"outputs":[{"name":"","type":"bytes","internalType":"bytes"}],"stateMutability":"nonpayable"},{"type":"error","name":"InsufficientOutput","inputs":[]},{"type":"error","name":"InvalidPool","inputs":[]},{"type":"error","name":"QuoteRevert","inputs":[{"name":"amountIn","type":"uint256","internalType":"uint256"},{"name":"amountOut","type":"uint256","internalType":"uint256"},{"name":"sqrtPriceAfter","type":"uint160","internalType":"uint160"},{"name":"gasEstimate","type":"uint256","internalType":"uint256"}]},{"type":"error","name":"SafeERC20FailedOperation","inputs":[{"name":"token","type":"address","internalType":"address"}]},{"type":"error","name":"SwapFailed","inputs":[]},{"type":"error","name":"UnauthorizedCallback","inputs":[]},{"type":"error","name":"UnauthorizedCaller","inputs":[]}],"bytecode":{"object":"0x60808060405234601557614cab908161001a8239f35b5f80fdfe6080604052600436101561001a575b3615610018575f80fd5b005b5f3560e01c806323a69e75146100c45780632c8958f6146100c457806333430c4a14610100578063400f5106146100fb57806367a6265e146100f657806367ca7c91146100f15780637c9e9da3146100ec57806391dd7346146100e757806392b16866146100e2578063a5e2989d146100dd578063a99f8966146100d8578063ab6291fe146100d3578063e56d0a6f146100ce578063eb55e6f1146100c95763fa461e330361000e575b61016e565b611371565b6112e9565b610f15565b610e82565b610dc3565b610d4a565b610861565b610691565b6105b5565b610562565b610454565b6103af565b9181601f840112156101335782359167ffffffffffffffff8311610133576020838186019501011161013357565b5f80fd5b60606003198201126101335760043591602435916044359067ffffffffffffffff82116101335761016a91600401610105565b9091565b346101335761017c36610137565b50507f8262aa0aaf259c3b6dbf5360db70d05feb8ca82e122fcaf57c4a3f4362a7f6005c917f8262aa0aaf259c3b6dbf5360db70d05feb8ca82e122fcaf57c4a3f4362a7f6015c907f8262aa0aaf259c3b6dbf5360db70d05feb8ca82e122fcaf57c4a3f4362a7f6025c7f8262aa0aaf259c3b6dbf5360db70d05feb8ca82e122fcaf57c4a3f4362a7f5ff5c6001600160a01b03163303610387576102aa575f8113610266575b505f821361022d57005b6001600160a01b03831630036102525761001892506001600160a01b03339116614060565b610018926001600160a01b03339216613fbd565b6001600160a01b03841630036102905761028a90336001600160a01b038416614060565b5f610223565b6102a59033856001600160a01b038516613fbd565b61028a565b8260405191633850c7bd60e01b835260e083600481335afa928315610382575f93610347575b5061032d905f8113156103415780925b5f82121561033157506102f290612490565b925b604051938493636255171f60e01b8552600485016001600160a01b0360609295945f946080840197845260208401521660408201520152565b0390fd5b61033b9150612490565b926102f4565b826102e0565b61032d91935061036e9060e03d60e01161037b575b610366818361162e565b8101906124dc565b50505050505092906102d0565b503d61035c565b611dc7565b7ff5c6c81a000000000000000000000000000000000000000000000000000000005f5260045ffd5b34610133576101a0366003190112610133573033036103e8576103d0611809565b604080519283526020830191909152819081015b0390f35b7f5c427cd9000000000000000000000000000000000000000000000000000000005f5260045ffd5b6001600160a01b0381160361013357565b359061042c82610410565b565b60c090602319011261013357602490565b8015150361013357565b359061042c8261043f565b34610133576101403660031901126101335760043561047281610410565b61047b3661042e565b9060e435916104898361043f565b61010435906101243561049b81610410565b6104a3611961565b935a955f851215610541576001600160a01b03946104d56104e3926104e8966040519687943093309360208801611996565b03601f19810184528361162e565b613c21565b92909192166040840152602083015281525a820391821161053c576060818101928352604080518351815260208085015190820152928101516001600160a01b031690830152915191810191909152608090f35b611bd1565b63081ceff360e41b5f5260045ffd5b61018090600319011261013357600490565b34610133576103e461057b61057636610550565b611e31565b60405191829182919091606080608083019480518452602081015160208501526001600160a01b0360408201511660408501520151910152565b34610133576080366003190112610133576105d1600435610410565b60243560643567ffffffffffffffff8111610133576105f4903690600401610105565b50507fd86eb83254f68c5dfc4e225ac5a8c924b574715967dc213ac588c21d7c8833dc5c907fd86eb83254f68c5dfc4e225ac5a8c924b574715967dc213ac588c21d7c8833dd5c6001600160a01b037fd86eb83254f68c5dfc4e225ac5a8c924b574715967dc213ac588c21d7c8833db5c163303610387576001600160a01b03831630036102525761001892506001600160a01b03339116614060565b3461013357610160366003190112610133576004356106af81610410565b60a03660231901126101335760c4356106c78161043f565b60e43561010435916106d883610410565b61012435906106e682610410565b61014435916106f483610410565b3033036103e8576107af6020956107d09561079a6103d09961078a6107bf97805f146107eb576107336107276024611f76565b6001600160a01b031690565b905b156107d55761076a61074a6107276044611f76565b935b61075461166e565b600281529d8e5b01906001600160a01b03169052565b6107753660246116da565b60408d01526001600160a01b031660608c0152565b6001600160a01b031660808a0152565b60a08801526001600160a01b031660c0870152565b6001600160a01b031660e0850152565b6001600160a01b0316610100830152565b612dbe565b61076a6107e56107276024611f76565b9361074c565b6107f86107276044611f76565b90610735565b6020600319820112610133576004359067ffffffffffffffff82116101335761016a91600401610105565b805180835260209291819084018484015e5f828201840152601f01601f1916010190565b90602061085e928181520190610829565b90565b346101335761086f366107fe565b6001600160a01b037f90e3c11b9f78c2665fff76a0877f21f24da1c72476ad322cf0a9a0540c01f5575c163303610387576001600160a01b03610938816108bc8582956020970190611f8c565b9b94979293999195969a909a1695169916926001600160a01b03811615610d04575b610904906108ea611650565b891515815292838501526001600160a01b03166040830152565b604051809681927ff3cd914c0000000000000000000000000000000000000000000000000000000083528760048401612012565b03815f335af1938415610382575f94610cd3575b508360801d9484600f0b96610b405750505f9084600f0b90828212610b17575b828712610acd575b5013610a50575b5f84136109c2575b60408051600f85810b602083015286900b918101919091526103e4906109b681606081015b03601f19810183528261162e565b6040519182918261084d565b602001516001600160a01b0316333b1561013357604051630b0d9c0960e01b81526001600160a01b039182166004820152941660248501526fffffffffffffffffffffffffffffffff1660448401525f8360648183335af1908115610382576103e4936109b692610a36575b819250610983565b80610a445f610a4a9361162e565b80611c64565b5f610a2e565b80516001600160a01b0316333b1561013357604051630b0d9c0960e01b81526001600160a01b03918216600482015290861660248201526fffffffffffffffffffffffffffffffff841660448201525f8160648183335af1801561038257610ab9575b5061097b565b80610a445f610ac79361162e565b5f610ab3565b610b1190610ae560208601516001600160a01b031690565b90610b0a610af5610af58b61209c565b6fffffffffffffffffffffffffffffffff1690565b9133614133565b5f610974565b610b3b610b2b85516001600160a01b031690565b82610b0a610af5610af58b61209c565b61096c565b90949150858115610cbe57610b5a610af5610af58561209c565b945b8215610ca5576fffffffffffffffffffffffffffffffff165b915f84600f0b1280610c9d575b15610c6157505050610af5610af5610b999261209c565b925b5f9080610be2575b5061032d9150604051938493636255171f60e01b8552600485016001600160a01b0360609295945f946080840197845260208401521660408201520152565b60809150610bf2610c13936140d0565b906040518080958194633205590760e21b8352600483019190602083019252565b03915afa80156103825761032d915f91610c2f575b5084610ba3565b610c51915060803d608011610c5a575b610c49818361162e565b8101906120cb565b50505084610c28565b503d610c3f565b90919592505f82129081610c95575b50610c7c575b50610b9b565b610c8e919450610af5610af59161209c565b9284610c76565b905086610c70565b508015610b82565b506fffffffffffffffffffffffffffffffff8316610b75565b610ccd610af5610af58361209c565b94610b5c565b610cf691945060203d602011610cfd575b610cee818361162e565b810190612003565b925f61094c565b503d610ce4565b508615610d1c576109046401000276a45b90506108de565b61090473fffd8963efd1fc6a506488495d951d5263988d25610d15565b610104359081600f0b820361013357565b346101335761012036600319011261013357600435610d6881610410565b610d713661042e565b60e435610d7d8161043f565b610d85610d39565b92610d8e611961565b925a94600f0b915f831215610541576104e36104e8936104d56001600160a01b03966040519586933092309260208701611a8e565b346101335760e036600319011261013357600435610de081610410565b60243590610ded82610410565b60443591610dfa83610410565b6064359160843593610e0b85610410565b60a435610e1781610410565b60c43592610e2484610410565b3033036103e8576103d09660209661079a6107bf9561078a610e7d996107af96610775610e4f61165f565b915f83525f8f8401525f60408401525f60608401525f6080840152610e7261166e565b600181529e8f61075b565b6128f6565b346101335761018036600319011261013357600435610ea081610410565b610ea93661042e565b60e43590610eb68261043f565b610104359261012435610ec881610410565b6101443592610ed684610410565b6101643595610ee487610410565b3033036103e8575f811215610541576103d0968695610f10946104d59360405198899660208801611b5d565b614212565b3461013357610f23366107fe565b906001600160a01b037f877b2b8439a2f09fcf270e240004e4f37f2fd6852f7b25487843cdc62828247b5c1633036103875760206001600160a01b03610f6e8382955f95019061210e565b9a16999893979596949594169391908684146112575761100e916001600160a01b03821615611227575b610fd8610fb561072761072760608b01516001600160a01b031690565b92610fbe611650565b8b1515815292838701526001600160a01b03166040830152565b6040519485809481937fcd0cc1ce0000000000000000000000000000000000000000000000000000000083528a6004840161227d565b03925af1908115610382575f91611208575b50925b8360801d9484600f0b966110d75750505f9084600f0b908282126110ae575b82871261107f575013610a50575f84136109c25760408051600f85810b602083015286900b918101919091526103e4906109b681606081016109a8565b610b119061109760208601516001600160a01b031690565b906110a7610af5610af58b61209c565b91336142d3565b6110d26110c285516001600160a01b031690565b826110a7610af5610af58b61209c565b611042565b836fffffffffffffffffffffffffffffffff86888a85156111f35750611102610af5610af58361209c565b945b156111ea575016925b5f90611152575b61032d9150604051938493636255171f60e01b8552600485016001600160a01b0360609295945f946080840197845260208401521660408201520152565b5060808161117361072761072760606111ad9601516001600160a01b031690565b90604051611189816109a8602082019485612326565b519020906040518080958194633205590760e21b8352600483019190602083019252565b03915afa80156103825761032d915f916111c8575b50611114565b6111e1915060803d608011610c5a57610c49818361162e565b505050846111c2565b9050169261110d565b610af5610af56112029261209c565b94611104565b611221915060203d602011610cfd57610cee818361162e565b5f611020565b905087841461123d576401000276a45b90610f98565b73fffd8963efd1fc6a506488495d951d5263988d25611237565b506112b19061127661072761072760608901516001600160a01b031690565b906040519485809481937f911a63b7000000000000000000000000000000000000000000000000000000008352600f0b8c8b600485016121f0565b03925af1908115610382575f916112ca575b5092611023565b6112e3915060203d602011610cfd57610cee818361162e565b5f6112c3565b34610133576101603660031901126101335760043561130781610410565b6113103661042e565b9060e4359061131e8261043f565b611326610d39565b906101243561133481610410565b610144359261134284610410565b3033036103e857600f0b945f861215610541576104d58594610f10936103d09860405197889560208701611b9d565b346101335761137f36610550565b61147c5a604061138e846115ef565b61143d61139d60208701611f76565b866114286113ae6101008301611f76565b6114186113be6101208501611f76565b916113f86113d56101606101408801359701611f76565b966113e86113e161166e565b9a8b611f80565b6001600160a01b031660208a0152565b611404368a8e016116da565b888a01526001600160a01b03166060880152565b6001600160a01b03166080860152565b60a08401526001600160a01b031660c0830152565b3060e0820152306101008201528151809481927f33430c4a000000000000000000000000000000000000000000000000000000008352600483016123a8565b03815f305af1918215610382575f905f9361158e575b5061149c84614365565b801561157f576114ab82612490565b935b811561157957805b915f841280611571575b1561152357505050906114e86114e06114da61032d94612490565b956144a3565b915a90611be5565b90604051948594636255171f60e01b865260048601909493926001600160a01b03906060936080840197845260208401521660408201520152565b90919592505f82129081611569575b50611549575b50906114e86114e061032d936144a3565b61032d929194506114e061155f6114e892612490565b9592935050611538565b90505f611532565b5080156114bf565b826114b5565b61158884612490565b936114ad565b90506115b391925060403d6040116115bb575b6115ab818361162e565b810190612392565b91905f611492565b503d6115a1565b600b111561013357565b634e487b7160e01b5f52602160045260245ffd5b600b11156115ea57565b6115cc565b3561085e816115c2565b634e487b7160e01b5f52604160045260245ffd5b60c0810190811067ffffffffffffffff82111761162957604052565b6115f9565b90601f8019910116810190811067ffffffffffffffff82111761162957604052565b6040519061042c60608361162e565b6040519061042c60a08361162e565b6040519061042c6101208361162e565b6040519061042c6101008361162e565b6040519061042c60c08361162e565b6040519061042c60808361162e565b359061042c826115c2565b62ffffff81160361013357565b359061042c826116b7565b8060020b0361013357565b91908260a09103126101335760405160a0810181811067ffffffffffffffff821117611629576040526080808294803561171381610410565b8452602081013561172381610410565b60208501526040810135611736816116b7565b60408501526060810135611749816116cf565b606085015201359161175a83610410565b0152565b9190916101a08184031261013357610180611801916117a461177e61166e565b95611788836116ac565b875261179660208401610421565b6020880152604083016116da565b60408601526117b560e08201610421565b60608601526117c76101008201610421565b608086015261012081013560a08601526117e46101408201610421565b60c08601526117f66101608201610421565b60e086015201610421565b610100830152565b61181360046115ef565b61181c816115e0565b1561195757600161182d60046115ef565b611836816115e0565b1461194957600261184760046115ef565b611850816115e0565b1461193b57600361186160046115ef565b61186a816115e0565b1461193157600461187a816115ef565b611883816115e0565b1461192757600561189460046115ef565b61189d816115e0565b1461191d5760066118ae60046115ef565b6118b7816115e0565b146119135760076118c860046115ef565b6118d1816115e0565b146119095760086118e260046115ef565b6118eb816115e0565b146118ff5763081ceff360e41b5f5260045ffd5b61016a6004613af7565b61016a60046138eb565b61016a600461363a565b61016a6004613454565b61016a6004613246565b61016a6004612f11565b61016a6107d036600461175e565b61016a610e7d36600461175e565b61016a60046125a0565b604051906080820182811067ffffffffffffffff821117611629576040525f6060838281528260208201528260408201520152565b9261042c95611a6561018096611a7693611a4e611a87979c9b969c60a06101a08b019e60018c526001600160a01b0381356119d081610410565b1660208d01526001600160a01b0360208201356119ec81610410565b1660408d01526001600160a01b036040820135611a0881610410565b1660608d0152611a238c608060608401359161075b83610410565b611a3e8c83611a34608085016116c4565b62ffffff16910152565b013560c08b0152151560e08a0152565b6101008801526001600160a01b0316610120870152565b6001600160a01b0316610140850152565b6001600160a01b0316610160830152565b6001910152565b9194611a7661042c9561018095611b4b611a87959a9960a06101a089019c5f8a526001600160a01b038135611ac281610410565b1660208b01526001600160a01b036020820135611ade81610410565b1660408b01526001600160a01b036040820135611afa81610410565b1660608b0152611b216060820135611b1181610410565b6001600160a01b031660808c0152565b611b3b611b30608083016116c4565b62ffffff168b840152565b013560c0890152151560e0880152565b6101008601525f610120860152611a65565b9261042c95611a6561018096611a7693611a4e611b97979c9b969c60a06101a08b019e60018c526001600160a01b0381356119d081610410565b5f910152565b9194611a7661042c9561018095611b4b611b97959a9960a06101a089019c5f8a526001600160a01b038135611ac281610410565b634e487b7160e01b5f52601160045260245ffd5b9190820391821161053c57565b9190916101808184031261013357610160611c5d91611c1261177e61167e565b6040860152611c2360e08201610421565b6060860152611c356101008201610421565b6080860152611c476101208201610421565b60a086015261014081013560c086015201610421565b60e0830152565b5f91031261013357565b90600b8210156115ea5752565b61042c90929192610160611db981610180840196611ca3858235611c9e816115c2565b611c6e565b6001600160a01b036020820135611cb981610410565b1660208601526001600160a01b036040820135611cd581610410565b1660408601526001600160a01b036060820135611cf181610410565b16606086015262ffffff6080820135611d09816116b7565b16608086015260a0810135611d1d816116cf565b60020b60a0860152611d4660c0820135611d3681610410565b6001600160a01b031660c0870152565b611d65611d5560e08301610421565b6001600160a01b031660e0870152565b611d86611d756101008301610421565b6001600160a01b0316610100870152565b611da7611d966101208301610421565b6001600160a01b0316610120870152565b61014081013561014086015201610421565b6001600160a01b0316910152565b6040513d5f823e3d90fd5b67ffffffffffffffff811161162957601f01601f191660200190565b60405190611dfd60208361162e565b5f8252565b3d15611e2c573d90611e1382611dd2565b91611e21604051938461162e565b82523d5f602084013e565b606090565b90611e3a611961565b915a926002611e48836115ef565b611e51816115e0565b14611f5b576001611e61836115ef565b611e6a816115e0565b14611f195750303b15610133575f611eaf91604051809381927feb55e6f100000000000000000000000000000000000000000000000000000000835260048301611c7b565b038183305af19081611f05575b5061054157611ec9611e02565b916084835110155f14610541576064604051936024810151855260448101516020860152015160408401525a9003606083015260808201604052565b80610a445f611f139361162e565b5f611ebc565b9192611f4c611f34611f2f611f53943690611bf2565b613e05565b91865260208601526001600160a01b03166040850152565b5a90611be5565b606082015290565b9192611f4c611f34611f71611f53943690611bf2565b613d38565b3561085e81610410565b600b8210156115ea5752565b61018081830312610133578035611fa281610410565b92611fbe6020830135611fb481610410565b93604084016116da565b9160e0810135611fcd8161043f565b9161010082013591610120810135611fe481610410565b91610160610140830135611ff78161043f565b92013561085e81610410565b90816020910312610133575190565b906101409261206183612088936001600160a01b036080809282815116855282602082015116602086015262ffffff6040820151166040860152606081015160020b6060860152015116910152565b8051151560a0840152602081015160c0840152604001516001600160a01b031660e0830152565b6101206101008201525f6101208201520190565b600f0b7fffffffffffffffffffffffffffffffff80000000000000000000000000000000811461053c575f0390565b91908260809103126101335781516120e281610410565b9160208101516120f1816116cf565b9160606040830151612102816116b7565b92015161085e816116b7565b80929103916101a083126101335760c081356121298161043f565b93601f1901126101335760405161213f8161160d565b602082013561214d81610410565b8152604082013561215d81610410565b6020820152606082013561217081610410565b6040820152608082013561218381610410565b606082015260a0820135612196816116b7565b608082015260c082013560a0820152916121b260e08301610449565b91610100810135916121c76101208301610421565b916121d56101408201610421565b9161085e6101806121e96101608501610421565b9301610449565b9161225a83610140959360a080916001600160a01b0381511684526001600160a01b0360208201511660208501526001600160a01b0360408201511660408501526001600160a01b03606082015116606085015262ffffff60808201511660808501520151910152565b151560c0830152600f0b60e08201526101206101008201525f6101208201520190565b90610160926122ea836123129360a080916001600160a01b0381511684526001600160a01b0360208201511660208501526001600160a01b0360408201511660408501526001600160a01b03606082015116606085015262ffffff60808201511660808501520151910152565b8051151560c0840152602081015160e0840152604001516001600160a01b0316610100830152565b6101406101208201525f6101408201520190565b61042c9092919260c081019360a080916001600160a01b0381511684526001600160a01b0360208201511660208501526001600160a01b0360408201511660408501526001600160a01b03606082015116606085015262ffffff60808201511660808501520151910152565b9190826040910312610133576020825192015190565b61042c909291926101806101006101a08301956123c6848251611c6e565b6020818101516001600160a01b031690850152612428604082015160408601906001600160a01b036080809282815116855282602082015116602086015262ffffff6040820151166040860152606081015160020b6060860152015116910152565b60608101516001600160a01b031660e085015260808101516001600160a01b03168483015260a081015161012085015260c08101516001600160a01b031661014085015260e08101516001600160a01b031661016085015201516001600160a01b0316910152565b7f8000000000000000000000000000000000000000000000000000000000000000811461053c575f0390565b519061ffff8216820361013357565b519063ffffffff8216820361013357565b908160e09103126101335780516124f281610410565b916020820151612501816116cf565b9161250e604082016124bc565b9161251b606083016124bc565b91612528608082016124bc565b9160c061253760a084016124cb565b92015161085e8161043f565b90816020910312610133575161085e81610410565b51906dffffffffffffffffffffffffffff8216820361013357565b908160609103126101335761258781612558565b9161085e604061259960208501612558565b93016124cb565b9060208201916125b561072761072785611f76565b60405191630dfe168160e01b8352602083600481855afa928315610382575f936128d5575b506040519163d21220a760e01b8352602083600481845afa8015610382576001600160a01b03935f916128a6575b5060e08301948461261887611f76565b9116948591161493845f1461285757506001600160a01b038061263e6101008601611f76565b9216911603612849575b60405193630240bc6b60e21b8552606085600481855afa8015610382575f955f91612813575b506101208401355f81121561280b5761268690612490565b9586915b86156127e857906dffffffffffffffffffffffffffff806126ae93169116836146ce565b975b61016085016126be81611f76565b6001600160a01b031630036127c157506126e66126e06107276126ec95611f76565b91611f76565b90614060565b82156127ba575f905b83156127ad5761270a61018088945b01611f76565b90803b15610133576040517f022c0d9f000000000000000000000000000000000000000000000000000000008152600481019390935260248301939093526001600160a01b03166044820152608060648201525f608482018190529091829060a490829084905af1801561038257612799575b50156127905761278c90612490565b9190565b61085e90612490565b80610a445f6127a79361162e565b5f61277d565b61270a6101805f94612704565b85906126f5565b906127dd6126e06127d76107276127e397611f76565b93611f76565b91613fbd565b6126ec565b6dffffffffffffffffffffffffffff8061280593169116836146ce565b976126b0565b95869161268a565b905061283891955060603d606011612842575b612830818361162e565b810190612573565b509490945f61266e565b503d612826565b62820f3560e61b5f5260045ffd5b906001600160a01b038061286a88611f76565b92169116149081159161288c575b50156126485762820f3560e61b5f5260045ffd5b905061289e6107276101008501611f76565b14155f612878565b6128c8915060203d6020116128ce575b6128c0818361162e565b810190612543565b5f612608565b503d6128b6565b6128ef91935060203d6020116128ce576128c0818361162e565b915f6125da565b602081019161291261072761072785516001600160a01b031690565b9160405192630dfe168160e01b8452602084600481845afa938415610382575f94612c19575b506040519063d21220a760e01b8252602082600481845afa918215610382575f92612bf8575b5060608301916001600160a01b038061297e85516001600160a01b031690565b971696169580871496875f14612bab5750506001600160a01b03806129ad60808701516001600160a01b031690565b9216911603612849576129fd6040926129d1612a66985b516001600160a01b031690565b906129f76129e960e08801516001600160a01b031690565b91516001600160a01b031690565b9161472e565b60c08301516001600160a01b0316908115612b7c575b60a08401515f8451809981958294630251596160e31b84528b3060048601926001600160a01b03928360c0969316855215156020850152604084015216606082015260a060808201525f60a08201520190565b03925af1928315610382575f945f94612b55575b508385612a85614845565b610100840192612a9c84516001600160a01b031690565b90306001600160a01b03831603612ab6575b505050505050565b15612b165750505f8112612ad4575b5050505b5f8080808080612aae565b612b08612b02612af46107276080612b0e9701516001600160a01b031690565b93516001600160a01b031690565b91612490565b91614060565b5f8080612ac5565b915091505f8212612b2a575b505050612ac9565b612b08612b476107276080612b4d9601516001600160a01b031690565b92612490565b5f8080612b22565b909350612b7291945060403d6040116115bb576115ab818361162e565b939093925f612a7a565b90508415612b91576401000276a45b90612a13565b73fffd8963efd1fc6a506488495d951d5263988d25612b8b565b90916001600160a01b03161490811591612bd7575b50612849576129fd6040926129d1612a66986129c4565b9050612bf061072760808601516001600160a01b031690565b14155f612bc0565b612c1291925060203d6020116128ce576128c0818361162e565b905f61295e565b612c3391945060203d6020116128ce576128c0818361162e565b925f612938565b929461016094612caa5f976001600160a01b0380969b9a959b816101808a019d16895216602088015260408701906001600160a01b036080809282815116855282602082015116602086015262ffffff6040820151166040860152606081015160020b6060860152015116910152565b151560e085015261010084015216610120820152826101408201520152565b9590979692946001600160a01b0394612d3961016097878096816101808d019e168c521660208b015260408a01906001600160a01b036080809282815116855282602082015116602086015262ffffff6040820151166040860152606081015160020b6060860152015116910152565b151560e088015261010087015216610120850152600161014085015216910152565b6020818303126101335780519067ffffffffffffffff8211610133570181601f8201121561013357805190612d8f82611dd2565b92612d9d604051948561162e565b8284526020838301011161013357815f9260208093018386015e8301015290565b5f612ec28192612e8c610727612e836020612de360608601516001600160a01b031690565b94612e756040820151966001600160a01b03612e0c6107276107278b516001600160a01b031690565b91161496612e67612e2760e08501516001600160a01b031690565b91612e3d6101008601516001600160a01b031690565b9960a086015190612e5860c08801516001600160a01b031690565b926040519c8d968a8801612c3a565b03601f19810188528761162e565b01516001600160a01b031690565b610727816148d3565b906040519485809481937f48c894910000000000000000000000000000000000000000000000000000000083526004830161084d565b03925af180156103825761016a915f91612eef575b50612ee06148f7565b60208082518301019101612392565b612f0b91503d805f833e612f03818361162e565b810190612d5b565b5f612ed7565b9060208201612f2261072782611f76565b6001600160a01b0316925f199182905f5b600881106130c2575b505f82600f0b1280156130b6575b6128495761300595612fb2945f60209461012087013582811283146130ad57612f7290612490565b978880965b89826101608201612f8781611f76565b6001600160a01b0330911603613083575b50506126e061072760e0612fac9301611f76565b906149c7565b604051998a95869485937f3df021240000000000000000000000000000000000000000000000000000000085526004850160609194935f936080830196600f0b8352600f0b602083015260408201520152565b03925af1938415610382575f9461305c575b5090818461018061278c94013061303061072783611f76565b0361303e575b505050612490565b6126e66126e06107276101006130549601611f76565b5f8481613036565b61278c9291945061307b9060203d602011610cfd57610cee818361162e565b939091613017565b61309561072760e06130a59501611f76565b61309f3092611f76565b90613fbd565b89825f612f98565b97888096612f77565b505f84600f0b12612f4a565b6040517fc6610657000000000000000000000000000000000000000000000000000000008152600481018290526020816024818b5afa5f9181613162575b5061310b5750612f3c565b6001600160a01b0361312261072760e08801611f76565b9116908114613156575b61313c6107276101008701611f76565b1461314a575b600101612f33565b600f81900b9450613142565b925080600f0b9261312c565b61317b91925060203d81116128ce576128c0818361162e565b905f613100565b9092919260e08252805160e083015260208101519060028210156115ea5760a06131f891613237936101008601526001600160a01b036040820151166101208601526001600160a01b036060820151166101408601526080810151610160860152015160c06101808501526101a0840190610829565b936020830190606080916001600160a01b0381511684526020810151151560208501526001600160a01b03604082015116604085015201511515910152565b5f60a082015260c05f19910152565b90600491602061325d610727610727838501611f76565b604051948580927f38fff2d00000000000000000000000000000000000000000000000000000000082525afa928315610382576133c0936020915f91613437575b506133616107276101806101208601355f811215613431576132bf90612490565b955b6101608101876132d082611f76565b6001600160a01b0330911603613417575b505061334861330760e083016133028a6132fd61072784611f76565b61491c565b611f76565b6133386133176101008501611f76565b9161332061168e565b9889525f8a8a01526001600160a01b03166040890152565b6001600160a01b03166060870152565b866080860152613356611dee565b60a086015201611f76565b9061338661336d61169d565b308152925f848601526001600160a01b03166040840152565b5f606083015260405195869283927f52bbbe2900000000000000000000000000000000000000000000000000000000845260048401613182565b03815f73ba12222222228d8ba445958a75a0704d566bf2c85af1928315610382575f936133f2575b5061278c90612490565b61278c9193506134109060203d602011610cfd57610cee818361162e565b92906133e8565b61342a9161309561072760e08601611f76565b5f876132e1565b956132c1565b61344e9150823d8411610cfd57610cee818361162e565b5f61329e565b90602082019161346961072761072785611f76565b90604051907f4a248d2a000000000000000000000000000000000000000000000000000000008252602082600481865afa928315610382575f93602093859161361d575b506001600160a01b038060e08501926134c584611f76565b936101208701358981128a14613616576134de90612490565b809b5b61016089016134ef81611f76565b861630148c146135fb57506126e66126e061072761350c95611f76565b1691161484146135a65761352661018061356b9301611f76565b6040519485809481937fbd6015b4000000000000000000000000000000000000000000000000000000008352600483019190916001600160a01b036020820193169052565b03925af180156103825761278c915f91613587575b5092612490565b6135a0915060203d602011610cfd57610cee818361162e565b5f613580565b6135b661018061356b9301611f76565b6040519485809481937fdd93f59a000000000000000000000000000000000000000000000000000000008352600483019190916001600160a01b036020820193169052565b906127dd6126e06127d761072761361197611f76565b61350c565b809b6134e1565b6136349150843d86116128ce576128c0818361162e565b5f6134ad565b90602082019161364f61072761072785611f76565b92604051937f05e8746d000000000000000000000000000000000000000000000000000000008552602085600481845afa948515610382575f956138ca575b5060e083019161369d83611f76565b916101208501355f8112156138c4576136b590612490565b965b61010086019461370d6136cf61072761072789611f76565b9460206101808a01966136e188611f76565b9060405180809681946370a0823160e01b8352600483019190916001600160a01b036020820193169052565b03915afa988915610382578b925f9a613887575b5093602095936001600160a01b0395935f9361016088960161374281611f76565b87163014861461386c57506126e66126e061072761375f95611f76565b6137bd61376b88611f76565b604051998a97889687957f53c059a000000000000000000000000000000000000000000000000000000000875216911614600484019092916001600160a01b0360209160408401951515845216910152565b03925af18015610382576126e0610727610727613812966020966137e695613851575b50611f76565b9060405180809581946370a0823160e01b8352600483019190916001600160a01b036020820193169052565b03915afa9182156103825761278c92612b47925f91613832575b50611be5565b61384b915060203d602011610cfd57610cee818361162e565b5f61382c565b61386790883d8a11610cfd57610cee818361162e565b6137e0565b906127dd6126e06127d761072761388297611f76565b61375f565b6001600160a01b0395919a509385935f936101606138b460209a988b3d8d11610cfd57610cee818361162e565b9d94985050935093509395613721565b966136b7565b6138e491955060203d6020116128ce576128c0818361162e565b935f61368e565b90602082019161390061072761072785611f76565b92604051937f0fc63d10000000000000000000000000000000000000000000000000000000008552602085600481845afa94851561038257610180604094612704613a7f986139dc945f91613ad8575b506139a960e08401916001600160a01b038061396b85611f76565b9216911614916139926101208601355f81125f1461398c5761398c90612490565b99611f76565b906139a36126e06101608801611f76565b91614a14565b8015613ac9576139cd637fffffff915b6139c161169d565b98895215156020890152565b5f8789015260030b6060870152565b5f84518097819582947f3eece7db0000000000000000000000000000000000000000000000000000000084526004840190610100926001600160a01b03606092168352805160208401526020810151151560408401526040810151151582840152015160030b608082015260c060a0820152600160c08201527f010000000000000000000000000000000000000000000000000000000000000060e08201520190565b03925af1918215610382575f905f93613aa5575b5061278c90613aa0614a7c565b612490565b61278c9350613ac3915060403d6040116115bb576115ab818361162e565b92613a93565b6139cd637fffffff19916139b9565b613af1915060203d6020116128ce576128c0818361162e565b5f613950565b906101208201355f811215613c1c57613b0f90612490565b610160830181613b1e82611f76565b6001600160a01b0330911603613c02575b6020915060e08501613b606126e0610727610727613b4f61072786611f76565b61330287898d0192612fac84611f76565b955f613b7c610180613b756101008501611f76565b9301611f76565b97613be7604051998a96879586947f7dc20382000000000000000000000000000000000000000000000000000000008652600486019094936001600160a01b03905f948260a0958160c087019a16865216602085015260408401528460608401521660808201520152565b03925af1928315610382575f936133f2575061278c90612490565b613c159161309561072760e08801611f76565b5f81613b2f565b613b0f565b613c765f916001600160a01b0393817f877b2b8439a2f09fcf270e240004e4f37f2fd6852f7b25487843cdc62828247b5d83604051958680958194638154831960e01b83526020600484018181520190610829565b0393165af19081613d20575b50613cc157613cba613c92611e02565b5f7f877b2b8439a2f09fcf270e240004e4f37f2fd6852f7b25487843cdc62828247b5d614ae7565b9192909190565b6040517f08c379a000000000000000000000000000000000000000000000000000000000815260206004820152601360248201527f51756f74652073686f756c6420726576657274000000000000000000000000006044820152606490fd5b613d33903d805f833e612f03818361162e565b613c82565b5f613dc58192612e8c610727612e836020613d5d60808601516001600160a01b031690565b94612e756040820151966001600160a01b03613d866107276107278b516001600160a01b031690565b91161496612e6760c0840151613da660e08601516001600160a01b031690565b60608601516001600160a01b0316916040519b8c9530308b8901612cc9565b03925af19081613ded575b50613cc157613cba613de0611e02565b613de86148f7565b614ae7565b613e00903d805f833e612f03818361162e565b613dd0565b60208101613e2061072761072783516001600160a01b031690565b9060405191630dfe168160e01b8352602083600481845afa801561038257613f07946040945f92613f9c575b5060808101916001600160a01b0380613e6c85516001600160a01b031690565b921691161491613e8660e08301516001600160a01b031690565b946001600160a01b03861615613f50575b91613ebb60c092613eb36129e95f96516001600160a01b031690565b9030906147b9565b01518551630251596160e31b8152306004820152921515602484015260448301526001600160a01b03909316606482015260a060848201525f60a48201529384928391829060c4820190565b03925af19081613f32575b50613f2a57613cba613f22611e02565b613de8614845565b610541614845565b613f4a9060403d6040116115bb576115ab818361162e565b50613f12565b94505f91613ebb60c092858514613f7c57613eb36129e96401000276a45b999496505050925050613e97565b613eb36129e973fffd8963efd1fc6a506488495d951d5263988d25613f6e565b613fb691925060203d6020116128ce576128c0818361162e565b905f613e4c565b9290916001600160a01b039081604051947f23b872dd000000000000000000000000000000000000000000000000000000005f52166004521660245260445260205f60648180865af160015f5114811615614041575b6040919091525f606052155b6140265750565b635274afe760e01b5f526001600160a01b031660045260245ffd5b6001811516614057573d15833b15151616614013565b503d5f823e3d90fd5b916001600160a01b03604051927fa9059cbb000000000000000000000000000000000000000000000000000000005f521660045260245260205f60448180865af160015f51148116156140ba575b6040919091521561401f565b6001811516614057573d15833b151516166140ae565b60405161411e6020820180936001600160a01b036080809282815116855282602082015116602086015262ffffff6040820151166040860152606081015160020b6060860152015116910152565b60a0815261412d60c08261162e565b51902090565b929091926001600160a01b038316908115610541576001600160a01b031691823b1561013357604051632961046560e21b81526001600160a01b0390941660048501525f8480602481015b038183875af18015610382575f9560209585926141fe575b50306001600160a01b0382161487146141f057506141b392614060565b600460405180948193630476982d60e21b83525af18015610382576141d55750565b6141ed9060203d602011610cfd57610cee818361162e565b50565b6141f993613fbd565b6141b3565b80610a448961420c9361162e565b5f614196565b6142675f916001600160a01b0393817f877b2b8439a2f09fcf270e240004e4f37f2fd6852f7b25487843cdc62828247b5d83604051958680958194638154831960e01b83526020600484018181520190610829565b0393165af18015610382576142b0915f916142b9575b505f7f877b2b8439a2f09fcf270e240004e4f37f2fd6852f7b25487843cdc62828247b5d60208082518301019101612392565b911561016a5791565b6142cd91503d805f833e612f03818361162e565b5f61427d565b929091926001600160a01b038316908115614322576001600160a01b031691823b1561013357604051632961046560e21b81526001600160a01b0390941660048501525f84806024810161417e565b925050916001600160a01b0330911603610541576001600160a01b0360046020926040519485938492630476982d60e21b8452165af18015610382576141d55750565b61436e816115ef565b614377816115e0565b15801561446a575b15614400576001600160a01b0360206143a96101006143a2610727848701611f76565b9401611f76565b92600460405180948193630dfe168160e01b8352165afa908115610382576001600160a01b039182915f916143e1575b501691161490565b6143fa915060203d6020116128ce576128c0818361162e565b5f6143d9565b600261440b826115ef565b614414816115e0565b1461443d576001600160a01b036144376107276101206143a26101008601611f76565b91161090565b6001600160a01b03614464610727610727604061445d6101008701611f76565b9501611f76565b91161490565b506001614476826115ef565b61447f816115e0565b1461437f565b811561448f570490565b634e487b7160e01b5f52601260045260245ffd5b905f916144af816115ef565b6144b8816115e0565b61459d5760606144d2610727610727602060049501611f76565b60405192838092630240bc6b60e21b82525afa908115610382575f905f9261456c575b506dffffffffffffffffffffffffffff169081151580614553575b614518575050565b61085e9293509061454e6145476145416dffffffffffffffffffffffffffff6107279516614b44565b92614b44565b9160601b90565b614485565b506dffffffffffffffffffffffffffff81161515614510565b6dffffffffffffffffffffffffffff9250614596915060603d60601161284257612830818361162e565b50916144f5565b909160016145aa836115ef565b6145b3816115e0565b03614615575060e06145cf610727610727602060049501611f76565b60405192838092633850c7bd60e01b82525afa908115610382575f916145f3575090565b61460c915060e03d60e01161037b57610366818361162e565b50505050505090565b91906002614622826115ef565b61462b816115e0565b146146335750565b60e08101906001600160a01b0361464983611f76565b16614652575050565b61469a9293509061467a6107276107276127d761467560809660403691016116da565b6140d0565b6040518080958194633205590760e21b8352600483019190602083019252565b03915afa908115610382575f916146af575090565b6146c8915060803d608011610c5a57610c49818361162e565b50505090565b8015610541578115808015614726575b610541576103e582029182046103e50361053c5783820293828504148215171561053c576103e883029283046103e814171561053c57810180911161053c5761085e91614485565b5083156146de565b7f8262aa0aaf259c3b6dbf5360db70d05feb8ca82e122fcaf57c4a3f4362a7f5ff5d7f8262aa0aaf259c3b6dbf5360db70d05feb8ca82e122fcaf57c4a3f4362a7f6005d7f8262aa0aaf259c3b6dbf5360db70d05feb8ca82e122fcaf57c4a3f4362a7f6015d5f7f8262aa0aaf259c3b6dbf5360db70d05feb8ca82e122fcaf57c4a3f4362a7f6025d565b7f8262aa0aaf259c3b6dbf5360db70d05feb8ca82e122fcaf57c4a3f4362a7f5ff5d7f8262aa0aaf259c3b6dbf5360db70d05feb8ca82e122fcaf57c4a3f4362a7f6005d7f8262aa0aaf259c3b6dbf5360db70d05feb8ca82e122fcaf57c4a3f4362a7f6015d60017f8262aa0aaf259c3b6dbf5360db70d05feb8ca82e122fcaf57c4a3f4362a7f6025d565b5f7f8262aa0aaf259c3b6dbf5360db70d05feb8ca82e122fcaf57c4a3f4362a7f5ff5d5f7f8262aa0aaf259c3b6dbf5360db70d05feb8ca82e122fcaf57c4a3f4362a7f6005d5f7f8262aa0aaf259c3b6dbf5360db70d05feb8ca82e122fcaf57c4a3f4362a7f6015d5f7f8262aa0aaf259c3b6dbf5360db70d05feb8ca82e122fcaf57c4a3f4362a7f6025d565b7f90e3c11b9f78c2665fff76a0877f21f24da1c72476ad322cf0a9a0540c01f5575d565b5f7f90e3c11b9f78c2665fff76a0877f21f24da1c72476ad322cf0a9a0540c01f5575d565b9061493c8173ba12222222228d8ba445958a75a0704d566bf2c884614b8c565b15614945575050565b61496373ba12222222228d8ba445958a75a0704d566bf2c883614bda565b156149ab576149879073ba12222222228d8ba445958a75a0704d566bf2c883614c39565b1561498f5750565b6001600160a01b0390635274afe760e01b5f521660045260245ffd5b6001600160a01b0382635274afe760e01b5f521660045260245ffd5b91906149d4828285614b8c565b156149de57505050565b6149e88184614bda565b156149f857906149879183614c39565b6001600160a01b0383635274afe760e01b5f521660045260245ffd5b7fd86eb83254f68c5dfc4e225ac5a8c924b574715967dc213ac588c21d7c8833db5d7fd86eb83254f68c5dfc4e225ac5a8c924b574715967dc213ac588c21d7c8833dc5d7fd86eb83254f68c5dfc4e225ac5a8c924b574715967dc213ac588c21d7c8833dd5d565b5f7fd86eb83254f68c5dfc4e225ac5a8c924b574715967dc213ac588c21d7c8833db5d5f7fd86eb83254f68c5dfc4e225ac5a8c924b574715967dc213ac588c21d7c8833dc5d5f7fd86eb83254f68c5dfc4e225ac5a8c924b574715967dc213ac588c21d7c8833dd5d565b8051916004831015614afa575b50602001fd5b636255171f60e01b7fffffffff0000000000000000000000000000000000000000000000000000000060208401511603614af4576024820151604483015160649093015190935090565b8015614b87576001810180821161053c5760011c815b828210614b6657505090565b90915081614b748183614485565b90810180911161053c5760011c90614b5a565b505f90565b92916001600160a01b036040519263095ea7b360e01b5f521660045260245260205f60448180875af19260015f5114841615614bc9575b50604052565b3d15903b151516909216915f614bc3565b91906001600160a01b036040519163095ea7b360e01b5f52166004525f60245260205f60448180875af19260015f5114841615614c175750604052565b60018492941516614c30573b15153d151616915f614bc3565b833d5f823e3d90fd5b92916001600160a01b036040519263095ea7b360e01b5f521660045260245260205f60448180875af19260015f5114841615614c17575060405256fea26469706673582212201a2e9ee79d21184e0b9a9598080263753a28199c8c57bf0513a1252a2e81935164736f6c634300081b0033","linkReferences":{}},"methodIdentifiers":{"algebraSwapCallback(int256,int256,bytes)":"2c8958f6","lockAcquired(bytes)":"ab6291fe","maverickV2SwapCallback(address,uint256,uint256,bytes)":"67ca7c91","pancakeV3SwapCallback(int256,int256,bytes)":"23a69e75","quote((uint8,address,(address,address,uint24,int24,address),address,address,address,int256,uint160))":"67a6265e","quoteInfinityBin(address,(address,address,address,address,uint24,bytes32),bool,int128)":"92b16866","quoteInfinityCL(address,(address,address,address,address,uint24,bytes32),bool,int256,uint160)":"400f5106","simulateSwap((uint8,address,(address,address,uint24,int24,address),address,address,address,int256,uint160))":"eb55e6f1","swap((uint8,address,(address,address,uint24,int24,address),address,address,int256,uint160,address,address))":"33430c4a","swapInfinityBin(address,(address,address,address,address,uint24,bytes32),bool,int128,address,address)":"e56d0a6f","swapInfinityCL(address,(address,address,address,address,uint24,bytes32),bool,int256,uint160,address,address)":"a99f8966","swapV3(address,address,address,int256,uint160,address,address)":"a5e2989d","swapV4(address,(address,address,uint24,int24,address),bool,int256,uint160,address,address)":"7c9e9da3","uniswapV3SwapCallback(int256,int256,bytes)":"fa461e33","unlockCallback(bytes)":"91dd7346"},"id":19}