{"abi":[{"type":"constructor","inputs":[{"name":"routerImplementation_","type":"address","internalType":"address"}],"stateMutability":"nonpayable"},{"type":"fallback","stateMutability":"payable"},{"type":"receive","stateMutability":"payable"},{"type":"function","name":"cook","inputs":[{"name":"ingredients","type":"bytes[]","internalType":"bytes[]"}],"outputs":[{"name":"returnData","type":"bytes","internalType":"bytes"}],"stateMutability":"payable"},{"type":"error","name":"AddressZero","inputs":[]},{"type":"error","name":"SauceCallOffsetOutOfBounds","inputs":[{"name":"offset","type":"uint256","internalType":"uint256"},{"name":"currentIndex","type":"uint256","internalType":"uint256"}]},{"type":"error","name":"SauceCreateFailed","inputs":[]},{"type":"error","name":"SauceEmptyCallsArray","inputs":[]},{"type":"error","name":"SauceInsufficientValue","inputs":[]},{"type":"error","name":"SauceInvalidDataLength","inputs":[]},{"type":"error","name":"SauceInvalidMagicHeader","inputs":[]},{"type":"error","name":"SauceInvalidOperationArgs","inputs":[{"name":"opcode","type":"uint8","internalType":"uint8"}]},{"type":"error","name":"SauceInvalidSignature","inputs":[]},{"type":"error","name":"SauceMemoryIndexOutOfBounds","inputs":[{"name":"index","type":"uint256","internalType":"uint256"},{"name":"memorySize","type":"uint256","internalType":"uint256"}]},{"type":"error","name":"SauceMemoryOutOfBounds","inputs":[{"name":"index","type":"uint256","internalType":"uint256"},{"name":"maxIndex","type":"uint256","internalType":"uint256"}]},{"type":"error","name":"SauceOnlySelf","inputs":[]},{"type":"error","name":"SauceSliceOutOfBounds","inputs":[]},{"type":"error","name":"SauceUnknownOpcode","inputs":[{"name":"opcode","type":"uint8","internalType":"uint8"}]},{"type":"error","name":"SauceZeroTarget","inputs":[]}],"bytecode":{"object":"0x60a034607a57601f6147ad38819003918201601f19168301916001600160401b03831184841017607e57808492602094604052833981010312607a57516001600160a01b038116808203607a5715606b5760805260405161471a90816100938239608051816101c80152f35b639fabe1c160e01b5f5260045ffd5b5f80fd5b634e487b7160e01b5f52604160045260245ffdfe60806040526004361015610015575b366101be57005b5f3560e01c63bcb485b80361000e5760203660031901126100eb5760043567ffffffffffffffff81116100eb57366023820112156100eb57806004013561005b8161012a565b916100696040519384610103565b8183526024602084019260051b820101903682116100eb5760248101925b8284106100aa576100a661009a866102e2565b60405191829182610194565b0390f35b833567ffffffffffffffff81116100eb578201366043820112156100eb576020916100e08392369060446024820135910161015e565b815201930192610087565b5f80fd5b634e487b7160e01b5f52604160045260245ffd5b90601f8019910116810190811067ffffffffffffffff82111761012557604052565b6100ef565b67ffffffffffffffff81116101255760051b60200190565b67ffffffffffffffff811161012557601f01601f191660200190565b92919261016a82610142565b916101786040519384610103565b8294818452818301116100eb578281602093845f960137010152565b602060409281835280519182918282860152018484015e5f828201840152601f01601f1916010190565b365f80375f8036817f00000000000000000000000000000000000000000000000000000000000000005af43d5f803e156101f6573d5ff35b3d5ffd5b604051906040820182811067ffffffffffffffff8211176101255760405260606020835f81520152565b6040519060a0820182811067ffffffffffffffff8211176101255760405260606080835f81526102526101fa565b602082015282604082015282808201520152565b634e487b7160e01b5f52601160045260245ffd5b5f1981019190821161028857565b610266565b602003906020821161028857565b9190820391821161028857565b634e487b7160e01b5f52603260045260245ffd5b8051156102c95760200190565b6102a8565b80518210156102c95760209160051b010190565b8051801561034a576102f2610224565b918060808401525f198201918211610288578261031460209361031a936102ce565b516103b3565b91018051511561032e576020915051015190565b5060405190602082015260208152610347604082610103565b90565b7faf3bd067000000000000000000000000000000000000000000000000000000005f5260045ffd5b8051600110156102c95760210190565b8051600210156102c95760220190565b8051600310156102c95760230190565b9081518110156102c9570160200190565b915f5b8251845181109081610414575b501561040e576001600160f81b03196103dd8451866103a2565b511660f81c5f6020850151526103f38486610439565b60ff60b091921610610406575b506103b6565b90505f610400565b92509050565b61041f9150856103a2565b5160f81c15155f6103c3565b5f1981146102885760010190565b9061045f61045961044b8351856103a2565b516001600160f81b03191690565b60f81c90565b9161046a825161042b565b825260ff8316602081111561076057603f81111561075457604f81111561074857605f8111156106c257606f8111156106b657607f8111156106aa57608f81111561067857609f8111156105e15760af81111561058e5760bf8111156105715760cf8111156104e957633f9cc3fd60e01b5f5260ff841660045260245ffd5b60c081146105665760c1811461055b5760c281146105505760c381146105455760c58111156105395760c61461052f57633f9cc3fd60e01b5f5260ff831660045260245ffd5b61034792506122c1565b509061034792916111bc565b5061034792506121a2565b5061034792506120fa565b50610347925061205e565b506103479250611fc8565b9092919060b7146105855761034792611d34565b61034792611b74565b9060a18211156105d55760a48211156105c9575060a5146105bf57633f9cc3fd60e01b5f5260ff821660045260245ffd5b6103479150611cfa565b61034793929150611b74565b61034793929150611aa0565b609081949392941461066c576091811461066057609581146106545760968114610648576098811461063c576099811461063057609a14610625576103479261197d565b905061034791611918565b50905061034791611780565b509050610347916116c5565b50905061034791611628565b5090506103479161147f565b509050610347916113de565b50905061034791611349565b6081811115610539576087101561069f57633f9cc3fd60e01b5f5260ff831660045260245ffd5b906103479291611204565b5090610347929161112e565b50505061034790611045565b6050811461073d57605181146107325760528114610727576053811461071c57605481146107115760551461070757633f9cc3fd60e01b5f5260ff831660045260245ffd5b6103479250610f94565b506103479250610f1c565b506103479250610ecc565b506103479250610e92565b506103479250610de8565b506103479250610d8d565b50906103479291610c7a565b50906103479291610941565b929190921561077257610347926107b0565b5050505f90565b906002820180921161028857565b906001820180921161028857565b906020820180921161028857565b9190820180921161028857565b90929160ff1683518181019283821161028857805184116107de57906020910101519060200360031b1c9252565b82637556b8d960e01b5f5260045260245ffd5b908160031b918083046008149015171561028857565b908160051b918083046020149015171561028857565b908160051b917f07ffffffffffffffffffffffffffffffffffffffffffffffffffffffffffffff81160361028857565b8181029291811591840414171561028857565b634e487b7160e01b5f52601260045260245ffd5b811561087e570490565b610860565b811561087e570690565b9290600193925b600182116108a0575050565b9092808204811161028857600184166108c0575b80029260011c90610894565b809402936108b4565b811561093a57801561093457808060011461092c5760021461091c5760208210610133821016604e8310600b8310161761091857610909915f199161088d565b90815f19048111610288570290565b0a90565b5060ff8111610288576001901b90565b505050600190565b50505f90565b5050600190565b60ff83166026811115610b985760278114610b845760288114610b565760298114610b4657602a8114610b1757602b8114610ae857602c8114610acb57602d8114610aae57602e8114610a9257602f8114610a755760308114610a595760318114610a3d5760328114610a215760338114610a1257603481146109f6576035146109db57633f9cc3fd60e01b5f5260ff831660045260245ffd5b9091506109e88282610439565b916109f291610439565b1c90565b50909150610a048282610439565b91610a0e91610439565b1b90565b50610a1d9250610439565b1990565b509150610a2e8183610439565b90610a399192610439565b1890565b509150610a4a8183610439565b90610a559192610439565b1790565b509150610a668183610439565b90610a719192610439565b1690565b509150610a828183610439565b90610a8d9192610439565b900b90565b50909150610aa08282610439565b91610aaa91610439565b1d90565b509150610abb8183610439565b90610ac69192610439565b900790565b509150610ad88183610439565b90610ae39192610439565b900590565b50909150610af68282610439565b91610b018183610439565b90610b0c9192610439565b91821561087e570990565b50909150610b258282610439565b91610b308183610439565b90610b3b9192610439565b91821561087e570890565b50610b519250610439565b5f0390565b50909150610b648282610439565b91610b6f8183610439565b90610b7a9192610439565b906103479261257b565b50610b8f9250610439565b61034790612406565b90925060218114610c5b5760228114610c3c5760238114610c1d5760248114610bfe57602514610be057610bcc8183610439565b90610bd79192610439565b610347916108c9565b610bea8183610439565b90610bf59192610439565b61034791610883565b50610c098183610439565b90610c149192610439565b61034791610874565b50610c288183610439565b90610c339192610439565b6103479161084d565b50610c478183610439565b90610c529192610439565b6103479161029b565b50610c668183610439565b90610c719192610439565b610347916107a3565b610c848282610439565b9160ff84169160428311610cb6575050909150604081145f14610ca657501590565b604103610cb257151590565b1590565b90610cc091610439565b9260488211610d0d575060458111610cef5760438103610cdf57501490565b604403610ceb57141590565b1190565b60468103610cfc57501090565b604703610d0857101590565b111590565b929190604f811115610d2f57633f9cc3fd60e01b5f5260ff841660045260245ffd5b91925090604c8111610d6357604a8111610d5257604903610d4e571390565b1290565b604b03610d5e57121590565b131590565b604d8193929314610d8457604e03610d7d57159015161590565b1590151890565b50159015171590565b815181511115610dd457610da56040918351906103a2565b5160f81c91610db4815161042b565b815201519081518110610dc75750505f90565b610dd0916102ce565b5190565b637556b8d960e01b5f52605060045260245ffd5b81610df291610439565b50602001518051908115610e8b5760ff82165f6020830151925260908114610e845760948114610e7c57609214610e3757637556b8d960e01b5f52605160045260245ffd5b60ff610e4f610e496103479460081c90565b60ff1690565b16600181101580610e71575b15610e6857905b51610874565b50602090610e62565b506020811115610e5b565b505060081c90565b5090505190565b5050602090565b81610e9c91610439565b60209091019081515115155f14610ec15750515f602082015191526020815191012090565b90505f5260205f2090565b610ed68282610439565b6001600160a01b03169082610eeb8183610439565b90610ef69192610439565b610f0e93602091500151915f60208401519352612624565b15610f1857600190565b5f90565b81610f2691610439565b602090910151908151908115610f8e575060ff1690602081015180519260908114159081610f82575b50610f6e5760208311610f6e575f6020925201519060200360031b1c90565b637556b8d960e01b5f52605460045260245ffd5b6091915014155f610f4f565b91505090565b81610fa191939293610439565b602090920151918251908115611040575060ff1660208301519283519160908114159081611034575b506110205760208211611020575f9081905291929082905b808210610fef5750505090565b90919392600190611009610e4961045961044b878a6103a2565b611012856107f1565b1b1792019093919293610fe2565b637556b8d960e01b5f52605560045260245ffd5b6091915014155f610fca565b925050565b60ff8116606081146111285760618114611122576062811461111c57606381146111165760648114611110576065811461110a576066811461110457606781146110fe57606881146110f857606981146110f257606a81146110ec57606b81146110e657606c81146110e057606d81146110da57606e146110d557633f9cc3fd60e01b5f5260ff1660045260245ffd5b504a90565b50503a90565b50504890565b50503490565b50504790565b50504590565b50504490565b50504190565b50504290565b50504390565b50503090565b50504690565b50505a90565b50503290565b50503390565b9061113891610439565b60ff8216607581146111b357607681146111ab57607081146111a4576071811461119d5760728114611196576073811461118f5760741461118957633f9cc3fd60e01b5f5260ff821660045260245ffd5b90504990565b5090503f90565b5090503b90565b5090504090565b5090503190565b5090503b1590565b5090503b151590565b6111c68282610439565b9260ff1691608183146111fd57608083146111f6576111e491610439565b9160c58392146111f2575d90565b5590565b5050505c90565b5050505490565b60ff8316608281146112d35760848114611278576083811461126d576085811461126257608681146112575760871461124d57633f9cc3fd60e01b5f5260ff831660045260245ffd5b6103479250612e46565b506103479250612d25565b506103479250612ca4565b5061034792506126a5565b5091506112858183610439565b91816112918183610439565b9061129c9192610439565b9260206112c79361034795500151905f6020830151925260208251920190f56001600160a01b031690565b6001600160a01b031690565b509150806112e18184610439565b906112ec9193610439565b9160206112c79261034794500151905f6020830151925260208251920190f06001600160a01b031690565b9061132182610142565b61132e6040519182610103565b828152809261133f601f1991610142565b0190602036910137565b8151815111156113ca5761136461045961044b8451846103a2565b9161136f815161042b565b9283825261138160ff821680956107a3565b8351106113ca576020916113ad8583859461139b83611317565b97855180936113bb575b5050506107a3565b815201609081515251015290565b0186018887015e5f80826113a5565b637556b8d960e01b5f52609060045260245ffd5b6113e88251610779565b81511061146557611410611406610e4961045961044b8651866103a2565b60081b61ff001690565b61142c610e4961045961044b6114268751610787565b866103a2565b17916114388151610779565b9283825261144b61ffff821680956107a3565b835110611465576020916113ad8583859461139b83611317565b637556b8d960e01b5f52609160045260245ffd5b60081b90565b6114898282610439565b6114938351610787565b8251111561160857826114a68184610439565b906114b19193610439565b60209093015190815180155f1461161c57506114eb6114dd916040519283916020830160209181520190565b03601f198101835282610103565b609090609083525b60ff821691609083036115b557506001905b611510828251610874565b80861161158d578061152288886107a3565b1161156c575b509181602080959461153c8960949661084d565b9261154684611317565b980201018587015e1461155857015290565b6115628460081b90565b6094178152015290565b6020809594929750611581876094959361029b565b97929495505091611528565b7fdb133627000000000000000000000000000000000000000000000000000000005f5260045ffd5b609483036115c65750602090611505565b60928303611608576115dd610e4960ff9260081c90565b166001811015806115fd575b156115f45790611505565b50602090611505565b5060208111156115e9565b637556b8d960e01b5f52609560045260245ffd5b905060208201516114f3565b8151815111156116b15761164361045961044b8451846103a2565b61164d835161042b565b835260ff8116156116b1576116628383610439565b9060208401519384519260ff8416609481145f1461168a5750506020610347950151936132a7565b6092036116a05750602061034795015193613130565b929190602061034796015194612f88565b637556b8d960e01b5f52609660045260245ffd5b908051825111156116f5576116df610347928251906103a2565b5160f81c906116ee815161042b565b81526133da565b637556b8d960e01b5f52609860045260245ffd5b906117138261012a565b6117206040519182610103565b828152809261133f601f199161012a565b9061173b8261012a565b6117486040519182610103565b8281528092611759601f199161012a565b01905f5b82811061176957505050565b6020906117746101fa565b8282850101520161175d565b90805182511115611904576117a761045961044b835161179f8161042b565b8552856103a2565b91608082019260ff6117ba85515161027a565b911690811015611904578251825111156119045761181293611818926117f261045961044b87516117ea8161042b565b8952846103a2565b906118086118018585516102ce565b5183613462565b9691989098611709565b97611731565b915f915f9060ff5f9316925b83811061188d575050505050916103149161185e9493611842610224565b97889586526040860152606085015280516080850152516102ce565b60209092018051519182611873575b50505090565b6020918280920193845152510151915101525f808061186d565b6118978a83610439565b60208b0180515190918d91156118e4575050905f8260019351516118bb878b6102ce565b515260208151015160206118d86118d18961042b565b988c6102ce565b51015251525b01611824565b909660019392506118fe906118f88161042b565b986102ce565b526118de565b637556b8d960e01b5f52609960045260245ffd5b8161192291610439565b50602081018051906020820151925f835283511561197557611961916060611948610224565b92604081015160408501520151606083015251936103b3565b91518061196d57505090565b604091515e90565b505050505f90565b60ff831660928114611a5f57609381146119f157609481146119e657609781146119db57609b81146119d057609c146119c657633f9cc3fd60e01b5f5260ff831660045260245ffd5b61034792506138a3565b506103479250613792565b50610347925061364a565b506103479250613603565b508151916119fe83610779565b825111156113ca5761034793611a29611479610e4961045961044b611a228961042b565b98886103a2565b611a3e610e4961045961044b611a228961042b565b1791611a5961045961044b611a528861042b565b97876103a2565b9361356b565b50815191611a6c83610787565b825111156113ca5761034793611a8d610e4961045961044b611a528861042b565b91611a5961045961044b611a528861042b565b60ff831660a08114611ad35760a114611ac957633f9cc3fd60e01b5f5260ff831660045260245ffd5b6103479250613949565b5081925090611ae191610439565b5060200151805160ff1660931901611b1f5780611b016090925160081c90565b611b16600160605f6020860194855190613b64565b90525260605190565b637556b8d960e01b5f5260a060045260245ffd5b60ff60019116019060ff821161028857565b3d15611b6f573d90611b5682610142565b91611b646040519384610103565b82523d5f602084013e565b606090565b9160ff81169060b78214611ca85750611b8d8284610439565b611b9f906001600160a01b03166112c7565b9060a28103611c5d5750611bb38284610439565b90611bbe8385610439565b915f9291839250602080860151015191602083519301915af190611be0611b45565b91925b8315611c03575b50602080910160908151525101525f14610f1857600190565b611c0d8251610787565b8151119081611c3d575b5015611c3457602081611c2b829351610779565b81529150611bea565b50602081519101fd5b60b79150610e4961045961044b611c56938651906103a2565b145f611c17565b90611c688385610439565b5060208381015101515f9283929060a303611c9657602082519201905afa90611c8f611b45565b9192611be3565b602082519201905af490611c8f611b45565b90508192915182511115611ce55750611cd7610e49611cd261045961044b611cde958751906103a2565b611b33565b82516107a3565b9052600190565b637556b8d960e01b5f5260ff1660045260245ffd5b611d1790602080611d0a36610142565b9260405194859485610103565b368452365f838601375f8236860101520160908151525101525190565b909260ff83169060b08214611f785760b18214611efb5760b28214611ec05760b38214611e685760b48214611e225760b58214611da4575060b614611d8957633f9cc3fd60e01b5f5260ff821660045260245ffd5b611d94838092610439565b5060209081015181015180519101fd5b93929050611db28351610787565b82511115611ce55750611def610e4961045961044b611dde611406610e4961045961044b8a518a6103a2565b94611de98751610787565b906103a2565b179061ffff611dfe8251610779565b80835292169182818111611e1a57611e159161029b565b905290565b50505f905290565b93809391505182511115611ce5575061045961044b611e4e92845190611e478261042b565b86526103a2565b815160ff909116919082818111611e1a57611e159161029b565b93929050611e768351610787565b82511115611ce55750611ea2610e4961045961044b611dde611406610e4961045961044b8a518a6103a2565b1790611e1561ffff611eb48351610779565b938484521680936107a3565b93809391505182511115611ce55750610e4961045961044b611eef93855190611ee88261042b565b87526103a2565b90611e158282516107a3565b9391929050611f0a8251610787565b83511115611ce55750611f5d81611f2e611406610e4961045961044b8551896103a2565b611f4a610e4961045961044b611f448651610787565b896103a2565b1793611f568251610779565b8252610439565b918215611f6957505090565b61ffff611e15911682516107a3565b9380929391505183511115611ce55750611fae81611fa861045961044b8351611fa08161042b565b8552876103a2565b93610439565b918215611fba57505090565b60ff611e15911682516107a3565b81518151111561204a57611ff46001600160f81b0319611fec6040938551906103a2565b511660f81c90565b91611fff815161042b565b8152019060ff8251519116908111612018575050600190565b61202190611709565b908051805180612036575b5050525f8061093a565b60209060051b9101602084015e5f8061202c565b637556b8d960e01b5f5260c060045260245ffd5b908051825111156120e6576120898161207e61045961044b8351876103a2565b93611f56825161042b565b6040926120aa919384930160ff8151519216918210156120ae575b516102ce565b5290565b6120bf6120ba83610787565b611709565b81518051806120d2575b505081526120a4565b60209060051b9101602083015e5f806120c9565b637556b8d960e01b5f5260c160045260245ffd5b91909182518151111561218e5761211b61045961044b6060938651906103a2565b92612126815161042b565b8152019160ff8351519116908111612140575b5060019150565b61214990611731565b908251905f5b82518110156121825780612165600192856102ce565b5161217082876102ce565b5261217b81866102ce565b500161214f565b5092905052805f612139565b637556b8d960e01b5f5260c260045260245ffd5b908051825111156122ad576121cb816121bc8151856103a2565b5160f81c93611f56825161042b565b916060820180515182101561224e575b51602092830180515191939290911561221157828261220b93515161220084886102ce565b5152510151936102ce565b51015290565b61220b91508261222182866102ce565b5152604051936122498561223b8887830160209181520190565b03601f198101875286610103565b6102ce565b9261226361225e83949693610787565b611731565b948451935f5b855181101561229c578061227f600192886102ce565b5161228a828b6102ce565b52612295818a6102ce565b5001612269565b5095855291949093919250906121db565b637556b8d960e01b5f5260c360045260245ffd5b6122d261045961044b8451846103a2565b916122dd815161042b565b81526122e98183610439565b506020810151925f602085015194525f5f915f935f9560ff831660018110156123f4575b60028110156123e2575b60038110156123d0575b600411156123bd575b5050602086019551958691805f146123aa57806001146123975780600214612384578060031461237157600414612365575b50505050505090565ba45f808080848161235c565b50909192939450a35f808080848161235c565b50919350919350a25f808080848161235c565b50925092509250a15f808080848161235c565b50935093505050a05f808080848161235c565b6123c8929650610439565b935f8061232a565b95506123dc8282610439565b95612321565b94506123ee8282610439565b94612317565b93506124008282610439565b9361230d565b600181111561034757806001700100000000000000000000000000000000831015612539575b6124df6124d56124cb6124c16124b76124ad61249c6124e69760048a680100000000000000006124eb9c101561252c575b64010000000081101561251f575b62010000811015612512575b610100811015612505575b60108110156124f8575b10156124f0575b60030260011c90565b6124a6818b610874565b0160011c90565b6124a6818a610874565b6124a68189610874565b6124a68188610874565b6124a68187610874565b6124a68186610874565b8093610874565b821190565b900390565b60011b612493565b60041c9160021b9161248c565b60081c9160041b91612482565b60101c9160081b91612477565b60201c9160101b9161246b565b60401c9160201b9161245d565b50506124eb6124e66124df6124d56124cb6124c16124b76124ad61249c6125608a60801c90565b985068010000000000000000975061242c9650505050505050565b9161258682846139be565b92909384156125f957848311156125ec5790829109815f0382168092046002816003021880820260020302808202600203028082026002030280820260020302808202600203028091026002030293600183805f03040190848311900302920304170290565b60116003841502186139d1565b5050906103479250610874565b6004111561261057565b634e487b7160e01b5f52602160045260245ffd5b9190823b61265f5790612636916139e1565b5061264081612606565b15918261264c57505090565b6001600160a01b03919250811691161490565b916020926064835f94519060405193630b135d3f60e11b855260048501526040602485015286820190604485015e01915afa630b135d3f60e11b5f5114601f3d11161690565b906126b08183610439565b906126c76112c76126cd936001600160a01b031690565b92610439565b610347916112c791607f8111612751578061274457506127316080915b6040516135a560f21b602082015260609190911b6bffffffffffffffffffffffff1916602282015260f89290921b6001600160f81b031916603683015281603781016114dd565b602081519101206001600160a01b031690565b60ff6127319116916126ea565b9060ff82116127ea576040517fd794000000000000000000000000000000000000000000000000000000000000602082015260609190911b6bffffffffffffffffffffffff191660228201527f8100000000000000000000000000000000000000000000000000000000000000603682015260f89190911b6001600160f81b03191660378201526127e581603881016114dd565b612731565b61ffff8211612896576040517fd894000000000000000000000000000000000000000000000000000000000000602082015260609190911b6bffffffffffffffffffffffff191660228201527f8200000000000000000000000000000000000000000000000000000000000000603682015260f09190911b7fffff0000000000000000000000000000000000000000000000000000000000001660378201526127e581603981016114dd565b62ffffff8211612943576040517fd994000000000000000000000000000000000000000000000000000000000000602082015260609190911b6bffffffffffffffffffffffff191660228201527f8300000000000000000000000000000000000000000000000000000000000000603682015260e89190911b7fffffff00000000000000000000000000000000000000000000000000000000001660378201526127e581603a81016114dd565b63ffffffff82116129f1576040517fda94000000000000000000000000000000000000000000000000000000000000602082015260609190911b6bffffffffffffffffffffffff191660228201527f8400000000000000000000000000000000000000000000000000000000000000603682015260e09190911b7fffffffff000000000000000000000000000000000000000000000000000000001660378201526127e581603b81016114dd565b64ffffffffff8211612aa0576040517fdb94000000000000000000000000000000000000000000000000000000000000602082015260609190911b6bffffffffffffffffffffffff191660228201527f8500000000000000000000000000000000000000000000000000000000000000603682015260d89190911b7fffffffffff0000000000000000000000000000000000000000000000000000001660378201526127e581603c81016114dd565b65ffffffffffff8211612b50576040517fdc94000000000000000000000000000000000000000000000000000000000000602082015260609190911b6bffffffffffffffffffffffff191660228201527f8600000000000000000000000000000000000000000000000000000000000000603682015260d09190911b7fffffffffffff00000000000000000000000000000000000000000000000000001660378201526127e581603d81016114dd565b66ffffffffffffff8211612c01576040517fdd94000000000000000000000000000000000000000000000000000000000000602082015260609190911b6bffffffffffffffffffffffff191660228201527f8700000000000000000000000000000000000000000000000000000000000000603682015260c89190911b7fffffffffffffff000000000000000000000000000000000000000000000000001660378201526127e581603e81016114dd565b6040517fde94000000000000000000000000000000000000000000000000000000000000602082015260609190911b6bffffffffffffffffffffffff191660228201527f8800000000000000000000000000000000000000000000000000000000000000603682015260c09190911b7fffffffffffffffff0000000000000000000000000000000000000000000000001660378201526127e581603f81016114dd565b90612caf8183610439565b6001600160a01b031690612cc38184610439565b90612cce9193610439565b6040516001600160f81b03196020820190815260609390931b6bffffffffffffffffffffffff19166021820152603581019390935260558301526001600160a01b0391612d1e81607581016114dd565b5190201690565b612d2f8282610439565b9180612d3b8184610439565b90612d469193610439565b90602091500151905f602083015192526040516020810190612d90816114dd846010907f67363d3d37363d34f03d5260086018f30000000000000000000000000000000081520190565b51905ff5916001600160a01b03831615612e1e57815f92916020849351920190855af1612dbb611b45565b5015612e1e576112c76112c76112c761034793604051612e0f816114dd6020820194856017916135a560f21b82526bffffffffffffffffffffffff199060601b166002820152600160f81b60168201520190565b5190206001600160a01b031690565b7f17b8439b000000000000000000000000000000000000000000000000000000005f5260045ffd5b90612e5091610439565b6112c76112c76112c7612efe6001600160a01b03610347956114dd612eee60405160208101907f67363d3d37363d34f03d5260086018f300000000000000000000000000000000825260108152612ea8603082610103565b5190206040519283916020830195308791605593916001600160f81b031984526bffffffffffffffffffffffff199060601b166001840152601583015260358201520190565b519020166001600160a01b031690565b6040516135a560f21b6020820190815260609290921b6bffffffffffffffffffffffff19166022820152600160f81b6036820152612e0f81603781016114dd565b90612f498261012a565b612f566040519182610103565b8281528092612f67601f199161012a565b01905f5b828110612f7757505050565b806060602080938501015201612f6b565b9195939460ff6020830151971695612f9f87612f3f565b94156130fb5750612faf846102bc565b52612fb9836102bc565b505f86525b612fc7836102bc565b5151916001925b60ff8416908782101561308557612fe58484610439565b8951156130445750609060ff612ffc8b5160ff1690565b16036116b15761303b60019161303360ff9460208d015161301d828c6102ce565b52613028818b6102ce565b505f8d525b896102ce565b5151906107a3565b94011692612fce565b60019161303360ff946114dd61306a61303b956040519283916020830160209181520190565b613074828c6102ce565b5261307f818b6102ce565b5061302d565b979694935050505061309685611317565b925f955f965b60ff8816858110156130e7576130cd60ff926130ba600193886102ce565b519081518092816130d6575b50506107a3565b9801169661309c565b6020016020838d01015e815f6130c6565b505094915094506020915060908152015290565b6114dd9150613117906040519283916020830160209181520190565b613120846102bc565b5261312a836102bc565b50612fbe565b94939192909360ff61314760208701519360081c90565b94169361315385612f3f565b938061315e866102bc565b52613168856102bc565b5051955f845260019760208501975b60ff8a1690888210156131f55761318e8484610439565b5086518560926131a060ff8416610e49565b14918215926131e7575b50506116b1576131db6001916131d1848b6131ca8f9760ff9851926102ce565b528b6102ce565b508b5151906107a3565b9a5f8852011698613177565b60081c14159050855f6131aa565b9398979695995050505061320881611317565b955f95865b60ff88168781101561325e5761324360ff9261322b6001938a6102ce565b5190808d83519384928361324c575b505050506107a3565b9801169661320d565b60208092019201015e818d5f8361323a565b5050929791955093506103479592506132778460081b90565b60921790525260018110158061329c575b156132935790610874565b50602090610874565b506020811115613288565b949190936132dc60ff60208701519316946132c186612f3f565b926132cb846102bc565b526132d5836102bc565b5060081c90565b945f835260019660208401965b60ff8916908782101561334d576133008484610439565b506094613311610e49885160ff1690565b036116b15761334160019161333560ff948c5161332e828b6102ce565b52886102ce565b50875160081c906107a3565b995f87520116976132e9565b9695939497985050505061336861336385610807565b611317565b935f965f975b60ff8916868110156133be576133a360ff9261338c600193896102ce565b5190808b8351938492836133ac57505050506107a3565b9901169761336e565b60208092019201015e818b5f8361323a565b5050935094915094506133d18460081b90565b60941790525290565b90606082015180519260ff831693841080159061344f575b6119755783613403602095846102ce565b515160018110159081613444575b5061342e575060409184809201519360051b010151825e01515190565b905083925061343c916102ce565b510151015190565b86915011155f613411565b5061345a84836102ce565b5151156133f2565b60ff1691825f92600281511015613507575b600481511015806134fd575b61348b575b50929190565b91929060ff61349f61045961044b86610382565b1660c081036134c857505050610e4961045961044b6134bd93610392565b906004915b5f613485565b919392909160c2146134db575b506134c2565b6134f3929450610e4991935061044b61045991610392565b916004915f6134d5565b5060028414613480565b929060ff61351a61045961044b876102bc565b1660c0810361354057505050613538610e4961045961044b85610372565b600292613474565b9193909160c119016134745792509250613562610e4961045961044b85610372565b92600292613474565b9093949192946020850151908661358182613a1b565b156135ef575060ff16613594878261084d565b94858501808611610288578451106135d957508392916135cd602092878481986135c0611e159b611317565b9701018587015e60081b90565b609217815201526107a3565b60ff90637556b8d960e01b5f521660045260245ffd5b945092859150916092926103479652613a36565b81518151111561363657610347905f609461362a85516136228161042b565b8752846103a2565b5160f81c948593613a36565b637556b8d960e01b5f52609460045260245ffd5b90806136568184610439565b906136619193610439565b90602091500151805191602082015192613682610e4960ff83169260081c90565b90609081036136c2575050909180518210156136ae5761044b610e4992610459925f61034796526103a2565b637556b8d960e01b5f52609760045260245ffd5b6092810361377f57506136d481613a1b565b61372d575090916136e6815160051c90565b8210156136ae576136f8602092610807565b010151805161370960ff8216613a1b565b61371757506040915e602090565b906020805f9201510151925260200360031b1c90565b60ff169261373c848251610874565b8210156136ae5761374f8460209361084d565b0101519160208110613763575b505f905290565b916137776137725f939461028d565b6107f1565b1c919061375c565b929391926094036136ae5760ff166136e6565b9061379d8183610439565b916137a66101fa565b91602081019081518051613895575b506137c08184610439565b906137cb9193610439565b505160208151910151906137e6610e4960ff83169260081c90565b9060948103613866575060ff16935b84831015613852576020926138279161380c6101fa565b86519096901561382d57805187528501518686015250610807565b01015290565b50848652604051808601918252906138499082906020016114dd565b84860152610807565b637556b8d960e01b5f52609b60045260245ffd5b6092149081613881575b501561385257805160051c936137f5565b61388f9150610cb290613a1b565b5f613870565b8060405f92875e525f6137b5565b816138ad91610439565b9060ff821161393557602001516138c661336383610807565b90826138da575b6020906115628460081b90565b91926138e46101fa565b9360208552604051613901816114dd602082016020905f81520190565b602086015260205b61391282610807565b811161392b57808661392692860152610795565b613909565b50909350916138cd565b637556b8d960e01b5f52609c60045260245ffd5b9080519180518310156139aa5760ff8061396c6139658661042b565b95846103a2565b5160f81c161692825261397f8282610439565b50815161399a5f856020860151936020850195865190613c71565b9093528360081b60941790525290565b637556b8d960e01b5f5260a160045260245ffd5b905f198183099102908180821091030391565b634e487b715f526020526024601cfd5b8151919060418303613a1157613a0a9250602082015190606060408401519301515f1a90613e06565b9192909190565b50505f9160029190565b60ff1660018110159081613a2d575090565b60209150111590565b9190929493613a4490610807565b94602084015192613a5487611317565b9460205b88811115613a9757505050613a8660ff9182613a78602097989960051c90565b911680613a8f575060081b90565b91161781520152565b905060081b90565b613aa18284610439565b613aa96101fa565b90875180155f14613b0d575060ff8616613af757906114dd613ae0613af29493602084526040519283916020830160209181520190565b6020820152818901525b5f8752610795565b613a58565b637556b8d960e01b5f5260ff871660045260245ffd5b905060ff86168015159182613b4c575b5050613b36579081604088613af2945e81890152613aea565b637556b8d960e01b5f5260ff861660045260245ffd5b909150613b5b9060ff16610e49565b14155f80613b1d565b93919392909282613c64575b8415948515613c57575b5081935f83965f14613c46575f5b838110613c0d57509291905b5f935b828510613bbb575050505050613bab575090565b81604052601f1981019103815290565b9091929396600180838a1c1614613bff57613bf09060208960051b85010151956020808851980151918a840381520196613f23565b600190975b0193929190613b97565b969360206001910194613bf5565b96613c299060208960051b850101516020815191015190613e93565b979097613c39575b600101613b88565b6001811b90911790613c31565b95508160051b830195929190613b94565b909182815201905f613b7a565b6040516020019150613b70565b919493929092613c8361336383610807565b935f93825b848610613c99575050505050509190565b81518910156139aa57613caa6101fa565b8060208860051b8a010152613cbf8a84613f9e565b509050613def57613cdf61045961044b613cd88d61042b565b9c866103a2565b60ff613cf160208588010151886107a3565b9116609081148015613de5575b15613d2c575091816020613d1b6001956090613d239652886145b8565b910152610795565b955b0194613c88565b6092819c939c148015613ddb575b15613d6a575083518210156139aa57613d54918585614153565b9160019391613d23939c90602082015252610795565b919a9291609414613d84575b5060019150613d2390610795565b83518b10156139aa57613db790613dae610e4961045961044b8f613da79061042b565b9f896103a2565b809c8787613c71565b92613dd0613d2393926001959d90602084015260081b90565b609417905290613d76565b5060938114613d3a565b5060918114613cfe565b613dfe91846001989b85614075565b959098613d25565b91907f7fffffffffffffffffffffffffffffff5d576e7357a4501ddfe92f46681b20a08411613e88579160209360809260ff5f9560405194855216868401526040830152606082015282805260015afa15613e7d575f516001600160a01b03811615613e7357905f905f90565b505f906001905f90565b6040513d5f823e3d90fd5b5050505f9160039190565b60ff8116613ea081613a1b565b613f0c57609403613f025760081c825f925b828410613ec3575050505090600190565b90919293613ee29060208660051b840101516020815191015190613e93565b94909415613ef557600101929190613eb2565b5050602001925f92509050565b5050602001905f90565b60209283015190830360031b1c8352500190600190565b9160ff831660908114613f7f5760928114613f6857609414613f5357637556b8d960e01b5f5260a060045260245ffd5b5f8092613f636103479560081c90565b613b64565b5090613f7a6103479360081c60ff1690565b6145d3565b50815180825260209350601f01601f191691829084018285015e010190565b80518210156139aa57613fc061045961044b613fb98561042b565b94846103a2565b613fc981613a1b565b61406a5760ff6094911603614061575f9080518310156139aa57613fff610e4961045961044b613ff88761042b565b96856103a2565b9061400a82856107a3565b8151106139aa57905f915b818310614026575050509160019190565b909192936140349082613f9e565b809691156140525750600191614049916107a3565b93019190614015565b955050505050506020915f9190565b506020915f9190565b505060209160019190565b94939190929461409461045961044b61408d8761042b565b96846103a2565b61409d81613a1b565b6141335760ff1691609483036139aa57916140c6610e4961045961044b611a228998969861042b565b9060206140d56133638461081d565b9384926140e28560081b90565b17815201525f935b8185106140fa5750505050509190565b91939683956141179161410e9593956101fa565b97889286614075565b9060019198909660208260051b880101520193919290926140ea565b60209150613d1b908288610347979996950101519060ff811685526146c7565b90929391936141686020828601015191610795565b936141738684613f9e565b50959061417f8861042b565b9761419161045961044b8b93896103a2565b9761447a57505060ff6141a661336385610807565b961693609085148015614470575b1561421757505f5b8381106141d857505050506141d19060081b90565b6092179290565b6001906141e36101fa565b602061420e614208828c85828860051b809301015288018901015160908552876107a3565b876145b8565b910152016141bc565b9190609285148015614466575b156142a9575f5b8481106142415750505050506141d19060081b90565b6142496101fa565b988160051b908a6020838c01015285518110156139aa5780614277602061427f9394870188010151866107a3565b908688614153565b9b906020820152526142908661027a565b82106142a0575b5060010161422b565b98506001614297565b909196609485145f146139aa5787518110156139aa576142c88161042b565b976142dd610e4961045961044b8c95856103a2565b6001996142ea82826107a3565b8351106139aa575f5b828110614429575b505082995f1461439a575f949394936143148260081b90565b609417945b8781106143315750505050505050506141d190611479565b61436e60209c8c6143406101fa565b9e8f918560051b010152846143666143608261435b87610807565b61084d565b8b6107a3565b918588613c71565b9c90602082015261437e8961027a565b8210614390575b869052600101614319565b949b508b94614385565b5f949394936143a98260081b90565b609417945b8781106143c75750505050505050506141d19060081b90565b8a9b836143d26101fa565b9d8e8460051b8092016020015289018401602001516143f1908a6107a3565b906143fd928588613c71565b9c90602082015261440d8961027a565b821061441f575b8690526001016143ae565b949b508b94614414565b61444d610cb261444861045961044b6144418761042b565b96896103a2565b613a1b565b614459576001016142f3565b505098505f985f806142fb565b5060938514614224565b50609185146141b4565b909192969461448886613a1b565b61455d5761449861336386610807565b9881518110156139aa576144ae9094939461042b565b976144c3610e4961045961044b8c96866103a2565b905f946144d08360081b90565b609417955b8c8982106144fc575050505050505050505060ff6144f4911660081b90565b609217929190565b60209c6145319161450b6101fa565b9e8f918560051b010152856145296145238c8661084d565b866107a3565b918689613c71565b9c9060208201526145418a61027a565b8210614553575b8790526001016144d5565b959b508b95614548565b5050509160ff909594951691614576613363848461084d565b955f918460200360031b925b8481106145985750505050506144f49060081b90565b80602060019260051b840185010151851b60208883028c01015201614582565b0190602082015160406145ca82611317565b9301602084015e565b8151919291908382156146b9576145e982613a1b565b61466c575060ff1660941461460d575b505f90602083613f63610347955160051c90565b60208201905f5b818110614634575b81111561462957506145f9565b90925060051c905290565b9161464e8291602085880101516020815191015190613e93565b93909315614665576146609150610795565b614614565b905061461c565b915060ff60209116918180614682858851610874565b9586815201950193830201018160200360031b5b8184106146a4575050505090565b8351811c855260209094019392820192614696565b505050602091505f81520190565b60ff1691906146d583611317565b9260200360031b1b602083015256fea264697066735822122095d48d4a7aad8027196d33c82158be87cac4e9912fdf6e9f58b77b8d4cd82f4964736f6c634300081b0033","linkReferences":{}},"methodIdentifiers":{"cook(bytes[])":"bcb485b8"},"id":21}