{"abi":[{"type":"constructor","inputs":[{"name":"v12Runtime_","type":"address","internalType":"address"},{"name":"router_","type":"address","internalType":"address"}],"stateMutability":"nonpayable"},{"type":"function","name":"deployPot","inputs":[{"name":"salt","type":"bytes32","internalType":"bytes32"}],"outputs":[{"name":"pot","type":"address","internalType":"address"}],"stateMutability":"nonpayable"},{"type":"function","name":"predictPot","inputs":[{"name":"owner","type":"address","internalType":"address"},{"name":"salt","type":"bytes32","internalType":"bytes32"}],"outputs":[{"name":"","type":"address","internalType":"address"}],"stateMutability":"view"},{"type":"function","name":"router","inputs":[],"outputs":[{"name":"","type":"address","internalType":"address"}],"stateMutability":"view"},{"type":"function","name":"v12Runtime","inputs":[],"outputs":[{"name":"","type":"address","internalType":"address"}],"stateMutability":"view"},{"type":"event","name":"PotDeployed","inputs":[{"name":"owner","type":"address","indexed":true,"internalType":"address"},{"name":"salt","type":"bytes32","indexed":true,"internalType":"bytes32"},{"name":"pot","type":"address","indexed":false,"internalType":"address"}],"anonymous":false}],"bytecode":{"object":"0x60c03461009457601f6108ad38819003918201601f19168301916001600160401b0383118484101761009857808492604094855283398101031261009457610052602061004b836100ac565b92016100ac565b9060805260a0526040516107ec90816100c1823960805181818160ef0152818161018c01526102ee015260a0518181816064015281816101b401526102cd0152f35b5f80fd5b634e487b7160e01b5f52604160045260245ffd5b51906001600160a01b03821682036100945756fe60806040526004361015610011575f80fd5b5f3560e01c806327b3ed7d146101135780637c84f8b4146100d05780639c8a57961461008c5763f887ea4014610045575f80fd5b34610088575f3660031901126100885760206040516001600160a01b037f0000000000000000000000000000000000000000000000000000000000000000168152f35b5f80fd5b34610088576040366003190112610088576004356001600160a01b0381168103610088576100bf60209160243590610286565b6001600160a01b0360405191168152f35b34610088575f3660031901126100885760206040516001600160a01b037f0000000000000000000000000000000000000000000000000000000000000000168152f35b34610088576020366003190112610088576004356101318133610286565b803b1561014d575b6020906001600160a01b0360405191168152f35b6101578233610397565b6040516103f08082019082821067ffffffffffffffff8311176102505782916101df916103c784393381526001600160a01b037f0000000000000000000000000000000000000000000000000000000000000000811660208301527f000000000000000000000000000000000000000000000000000000000000000016604082015260600190565b03905ff5918215610245576001600160a01b038281169316839003610231576020926040519081527f074ac9f78b843c14eb21f1bf63e010970de49f22bdff5091128f0a7929c4b47f843392a3610139565b634e487b7160e01b5f52600160045260245ffd5b6040513d5f823e3d90fd5b634e487b7160e01b5f52604160045260245ffd5b90601f8019910116810190811067ffffffffffffffff82111761025057604052565b600b60559161037c6001600160a01b03946103f0604051906102ab6020820183610264565b80825260208201906103c78239610373604051916020808401610342856103347f00000000000000000000000000000000000000000000000000000000000000007f00000000000000000000000000000000000000000000000000000000000000008d869160409194936001600160a01b03809281606087019816865216602085015216910152565b03601f198101875286610264565b60405194859383850197518091895e840190838201905f8252519283915e01015f815203601f198101835282610264565b51902092610397565b60405191604083015260208201523081520160ff8153201690565b90604051906001600160a01b0360208301931683526040820152604081526103c0606082610264565b5190209056fe60e0346100a757601f6103f038819003918201601f19168301916001600160401b038311848410176100ab578084926060946040528339810103126100a757610047816100bf565b906100606040610059602084016100bf565b92016100bf565b9160805260a05260c05260405161031c90816100d4823960805181818160d4015261015b015260a051818181607b015261027c015260c05181818161024e01526102b80152f35b5f80fd5b634e487b7160e01b5f52604160045260245ffd5b51906001600160a01b03821682036100a75756fe60806040526004361015610015575b366102ae57005b5f3560e01c80637c84f8b4146100545780638da5cb5b1461004f578063bcb485b81461004a5763f887ea400361000e57610222565b6100f8565b6100a8565b346100a4575f3660031901126100a45773ffffffffffffffffffffffffffffffffffffffff7f00000000000000000000000000000000000000000000000000000000000000001660805260206080f35b5f80fd5b346100a4575f3660031901126100a457602060405173ffffffffffffffffffffffffffffffffffffffff7f0000000000000000000000000000000000000000000000000000000000000000168152f35b60203660031901126100a45760043567ffffffffffffffff81116100a457366023820112156100a457806004013567ffffffffffffffff81116100a4573660248260051b840101116100a45773ffffffffffffffffffffffffffffffffffffffff7f00000000000000000000000000000000000000000000000000000000000000001633141580610218575b6101f057156101c857602481013590604219813603018212156100a4570160248101359067ffffffffffffffff82116100a457604401813603811315610272575f80fd5b7f277b9f2b000000000000000000000000000000000000000000000000000000005f5260045ffd5b7f30cd7471000000000000000000000000000000000000000000000000000000005f5260045ffd5b5030331415610184565b346100a4575f3660031901126100a457602060405173ffffffffffffffffffffffffffffffffffffffff7f0000000000000000000000000000000000000000000000000000000000000000168152f35b815f9283928337817f00000000000000000000000000000000000000000000000000000000000000005af43d5f803e156102aa573d5ff35b3d5ffd5b365f80375f8036817f00000000000000000000000000000000000000000000000000000000000000005af43d5f803e156102aa573d5ff3fea26469706673582212206444537f98a0af9d7b0e854122f2ee350474193dde35c3118c258302c10aa3fa64736f6c634300081b0033a2646970667358221220e4358ecaf88fd59f31a8e467bc68bfe0a9f084f1eb2b0be78d2b02aa49c7289764736f6c634300081b0033","linkReferences":{}},"methodIdentifiers":{"deployPot(bytes32)":"27b3ed7d","predictPot(address,bytes32)":"9c8a5796","router()":"f887ea40","v12Runtime()":"7c84f8b4"},"id":23}