{"abi":[{"type":"constructor","inputs":[{"name":"v12Runtime_","type":"address","internalType":"address"},{"name":"router_","type":"address","internalType":"address"}],"stateMutability":"nonpayable"},{"type":"function","name":"deployPot","inputs":[{"name":"owner","type":"address","internalType":"address"},{"name":"salt","type":"bytes32","internalType":"bytes32"}],"outputs":[{"name":"pot","type":"address","internalType":"address"}],"stateMutability":"nonpayable"},{"type":"function","name":"predictPot","inputs":[{"name":"owner","type":"address","internalType":"address"},{"name":"salt","type":"bytes32","internalType":"bytes32"}],"outputs":[{"name":"","type":"address","internalType":"address"}],"stateMutability":"view"},{"type":"function","name":"router","inputs":[],"outputs":[{"name":"","type":"address","internalType":"address"}],"stateMutability":"view"},{"type":"function","name":"v12Runtime","inputs":[],"outputs":[{"name":"","type":"address","internalType":"address"}],"stateMutability":"view"},{"type":"event","name":"PotDeployed","inputs":[{"name":"owner","type":"address","indexed":true,"internalType":"address"},{"name":"salt","type":"bytes32","indexed":true,"internalType":"bytes32"},{"name":"pot","type":"address","indexed":false,"internalType":"address"}],"anonymous":false},{"type":"error","name":"ZeroOwner","inputs":[]}],"bytecode":{"object":"0x60c03461009457601f6108f538819003918201601f19168301916001600160401b0383118484101761009857808492604094855283398101031261009457610052602061004b836100ac565b92016100ac565b9060805260a05260405161083490816100c1823960805181818160d2015281816102620152610336015260a05181818160fa015281816101f701526103150152f35b5f80fd5b634e487b7160e01b5f52604160045260245ffd5b51906001600160a01b03821682036100945756fe6080806040526004361015610012575f80fd5b5f3560e01c9081637c84f8b414610245575080639c8a57961461021b578063f887ea40146101d85763ff9763ac14610048575f80fd5b346101d45761005636610286565b906001600160a01b0381169182156101ac5761007281836102ce565b91823b1561008f575b6020836001600160a01b0360405191168152f35b61009982826103df565b90604051906103f08083019183831067ffffffffffffffff8411176101985783926101279261040f85396001600160a01b0391821681527f0000000000000000000000000000000000000000000000000000000000000000821660208201527f0000000000000000000000000000000000000000000000000000000000000000909116604082015260600190565b03905ff592831561018d576001600160a01b038381169416849003610179577f074ac9f78b843c14eb21f1bf63e010970de49f22bdff5091128f0a7929c4b47f60208095604051908152a35f8061007b565b634e487b7160e01b5f52600160045260245ffd5b6040513d5f823e3d90fd5b634e487b7160e01b5f52604160045260245ffd5b7f9905827b000000000000000000000000000000000000000000000000000000005f5260045ffd5b5f80fd5b346101d4575f3660031901126101d45760206040516001600160a01b037f0000000000000000000000000000000000000000000000000000000000000000168152f35b346101d457602061023461022e36610286565b906102ce565b6001600160a01b0360405191168152f35b346101d4575f3660031901126101d4576020906001600160a01b037f0000000000000000000000000000000000000000000000000000000000000000168152f35b60409060031901126101d4576004356001600160a01b03811681036101d4579060243590565b90601f8019910116810190811067ffffffffffffffff82111761019857604052565b600b6055916103c46001600160a01b03946103f0604051906102f360208201836102ac565b808252602082019061040f82396103bb60405191602080840161038a8561037c7f00000000000000000000000000000000000000000000000000000000000000007f00000000000000000000000000000000000000000000000000000000000000008d869160409194936001600160a01b03809281606087019816865216602085015216910152565b03601f1981018752866102ac565b60405194859383850197518091895e840190838201905f8252519283915e01015f815203601f1981018352826102ac565b519020926103df565b60405191604083015260208201523081520160ff8153201690565b90604051906001600160a01b0360208301931683526040820152604081526104086060826102ac565b5190209056fe60e0346100a757601f6103f038819003918201601f19168301916001600160401b038311848410176100ab578084926060946040528339810103126100a757610047816100bf565b906100606040610059602084016100bf565b92016100bf565b9160805260a05260c05260405161031c90816100d4823960805181818160d4015261015b015260a051818181607b015261027c015260c05181818161024e01526102b80152f35b5f80fd5b634e487b7160e01b5f52604160045260245ffd5b51906001600160a01b03821682036100a75756fe60806040526004361015610015575b366102ae57005b5f3560e01c80637c84f8b4146100545780638da5cb5b1461004f578063bcb485b81461004a5763f887ea400361000e57610222565b6100f8565b6100a8565b346100a4575f3660031901126100a45773ffffffffffffffffffffffffffffffffffffffff7f00000000000000000000000000000000000000000000000000000000000000001660805260206080f35b5f80fd5b346100a4575f3660031901126100a457602060405173ffffffffffffffffffffffffffffffffffffffff7f0000000000000000000000000000000000000000000000000000000000000000168152f35b60203660031901126100a45760043567ffffffffffffffff81116100a457366023820112156100a457806004013567ffffffffffffffff81116100a4573660248260051b840101116100a45773ffffffffffffffffffffffffffffffffffffffff7f00000000000000000000000000000000000000000000000000000000000000001633141580610218575b6101f057156101c857602481013590604219813603018212156100a4570160248101359067ffffffffffffffff82116100a457604401813603811315610272575f80fd5b7f277b9f2b000000000000000000000000000000000000000000000000000000005f5260045ffd5b7f30cd7471000000000000000000000000000000000000000000000000000000005f5260045ffd5b5030331415610184565b346100a4575f3660031901126100a457602060405173ffffffffffffffffffffffffffffffffffffffff7f0000000000000000000000000000000000000000000000000000000000000000168152f35b815f9283928337817f00000000000000000000000000000000000000000000000000000000000000005af43d5f803e156102aa573d5ff35b3d5ffd5b365f80375f8036817f00000000000000000000000000000000000000000000000000000000000000005af43d5f803e156102aa573d5ff3fea264697066735822122019fed33dc78fc9dd19005866ff139196cb66e389927fc77d8209a04d8376b11f64736f6c634300081b0033a2646970667358221220e28d0700e2b5510e72bdc7827a1eef79d97d51b8ad940b983bcb4fbdaf8e316f64736f6c634300081b0033","linkReferences":{}},"methodIdentifiers":{"deployPot(address,bytes32)":"ff9763ac","predictPot(address,bytes32)":"9c8a5796","router()":"f887ea40","v12Runtime()":"7c84f8b4"},"id":23}