{"abi":[{"type":"constructor","inputs":[{"name":"owner_","type":"address","internalType":"address"},{"name":"v12Runtime_","type":"address","internalType":"address"},{"name":"router_","type":"address","internalType":"address"}],"stateMutability":"nonpayable"},{"type":"fallback","stateMutability":"payable"},{"type":"receive","stateMutability":"payable"},{"type":"function","name":"cook","inputs":[{"name":"ingredients","type":"bytes[]","internalType":"bytes[]"}],"outputs":[{"name":"","type":"bytes","internalType":"bytes"}],"stateMutability":"payable"},{"type":"function","name":"owner","inputs":[],"outputs":[{"name":"","type":"address","internalType":"address"}],"stateMutability":"view"},{"type":"function","name":"router","inputs":[],"outputs":[{"name":"","type":"address","internalType":"address"}],"stateMutability":"view"},{"type":"function","name":"v12Runtime","inputs":[],"outputs":[{"name":"","type":"address","internalType":"address"}],"stateMutability":"view"},{"type":"error","name":"EmptyProgram","inputs":[]},{"type":"error","name":"NotOwner","inputs":[]}],"bytecode":{"object":"0x60e0346100a757601f6103f038819003918201601f19168301916001600160401b038311848410176100ab578084926060946040528339810103126100a757610047816100bf565b906100606040610059602084016100bf565b92016100bf565b9160805260a05260c05260405161031c90816100d4823960805181818160d4015261015b015260a051818181607b015261027c015260c05181818161024e01526102b80152f35b5f80fd5b634e487b7160e01b5f52604160045260245ffd5b51906001600160a01b03821682036100a75756fe60806040526004361015610015575b366102ae57005b5f3560e01c80637c84f8b4146100545780638da5cb5b1461004f578063bcb485b81461004a5763f887ea400361000e57610222565b6100f8565b6100a8565b346100a4575f3660031901126100a45773ffffffffffffffffffffffffffffffffffffffff7f00000000000000000000000000000000000000000000000000000000000000001660805260206080f35b5f80fd5b346100a4575f3660031901126100a457602060405173ffffffffffffffffffffffffffffffffffffffff7f0000000000000000000000000000000000000000000000000000000000000000168152f35b60203660031901126100a45760043567ffffffffffffffff81116100a457366023820112156100a457806004013567ffffffffffffffff81116100a4573660248260051b840101116100a45773ffffffffffffffffffffffffffffffffffffffff7f00000000000000000000000000000000000000000000000000000000000000001633141580610218575b6101f057156101c857602481013590604219813603018212156100a4570160248101359067ffffffffffffffff82116100a457604401813603811315610272575f80fd5b7f277b9f2b000000000000000000000000000000000000000000000000000000005f5260045ffd5b7f30cd7471000000000000000000000000000000000000000000000000000000005f5260045ffd5b5030331415610184565b346100a4575f3660031901126100a457602060405173ffffffffffffffffffffffffffffffffffffffff7f0000000000000000000000000000000000000000000000000000000000000000168152f35b815f9283928337817f00000000000000000000000000000000000000000000000000000000000000005af43d5f803e156102aa573d5ff35b3d5ffd5b365f80375f8036817f00000000000000000000000000000000000000000000000000000000000000005af43d5f803e156102aa573d5ff3fea26469706673582212206444537f98a0af9d7b0e854122f2ee350474193dde35c3118c258302c10aa3fa64736f6c634300081b0033","linkReferences":{}},"methodIdentifiers":{"cook(bytes[])":"bcb485b8","owner()":"8da5cb5b","router()":"f887ea40","v12Runtime()":"7c84f8b4"},"id":24}